:1000000045C0000060C000005EC000005CC0000091
:100010005AC0000058C0000056C0000054C0000084
:1000200052C0000050C000004EC000004CC0000094
:100030004AC0000051C1000046C0000044C000009A
:1000400042C0000040C000003EC000003CC00000B4
:100050003AC0000038C0000036C0000034C00000C4
:1000600032C0000030C000002EC000002CC00000D4
:100070002AC0000028C0000026C0000024C00000E4
:1000800022C0000020C000001EC0000011241FBEBE
:10009000CFEFD0E4DEBFCDBF11E0A0E0B1E0EEEBEA
:1000A000F9E000E00BBF02C007900D92AA32B10741
:1000B000D9F721E0AAE2B1E001C01D92AC34B20749
:1000C000E1F7ACD27AC49CCFCF93DF93CDB7DEB744
:1000D00081E004D00000DF91CF910895CF93DF93AA
:1000E0001F92CDB7DEB789838BE290E02BE230E040
:1000F000F90120812F7BFC01208388E290E0298197
:10010000FC0120838BE290E02BE230E0F9012081BA
:100110002068FC01208300008BE290E02BE230E0BD
:10012000F90120812F77FC01208382E090E034D018
:1001300000000F90DF91CF910895CF93DF931F922E
:10014000CDB7DEB789838BE290E02BE230E0F90196
:1001500020812064FC01208388E290E02981FC0159
:1001600020838BE290E02BE230E0F90120812068CF
:10017000FC01208300008BE290E02BE230E0F901EB
:1001800020812F77FC01208381E090E005D00000E2
:100190000F90DF91CF910895CF93DF9300D000D0DF
:1001A00000D0CDB7DEB79E838D831A82198213C02B
:1001B0001C821B8206C000008B819C8101969C835F
:1001C0008B838B819C8187309340ACF389819A81AA
:1001D00001969A83898329813A818D819E8128178E
:1001E000390734F3000026960FB6F894DEBF0FBE31
:1001F000CDBFDF91CF910895CF93DF9300D000D092
:10020000CDB7DEB769837A838B839C8389819A819A
:10021000AB81BC818093000190930101A093020106
:10022000B09303018091000190910101A09102011E
:10023000B091030180932B0190932C01A0932D0189
:10024000B0932E0100000F900F900F900F90DF9150
:10025000CF910895CF93DF93CDB7DEB781E890E0DB
:100260002BE0FC01208388E890E02DE730E0FC01E2
:10027000318320838FE690E022E0FC01208384E834
:1002800090E0FC01118210828091000190910101A7
:10029000A0910201B091030180932B0190932C0156
:1002A000A0932D01B0932E018FE590E02FE530E073
:1002B000F90120812068FC0120830000DF91CF91AB
:1002C0000895CF93DF93CDB7DEB781E080932A0105
:1002D0000000DF91CF9108951F920F9200905F0070
:1002E0000F92112400905B000F922F933F934F9336
:1002F0005F936F937F938F939F93AF93BF93EF938E
:10030000FF93CF93DF93CDB7DEB780912B01909110
:100310002C01A0912D01B0912E010197A109B109E5
:1003200080932B0190932C01A0932D01B0932E016B
:1003300080912B0190912C01A0912D01B0912E0163
:10034000892B8A2B8B2B89F4BCDF80910001909143
:100350000101A0910201B091030180932B019093C0
:100360002C01A0932D01B0932E010000DF91CF91BD
:10037000FF91EF91BF91AF919F918F917F916F917D
:100380005F914F913F912F910F9000925B000F90E2
:1003900000925F000F901F901895CF93DF93CDB719
:1003A000DEB72C970FB6F894DEBF0FBECDBF6D83BE
:1003B0007E838F83988729873A874B875C878D81D7
:1003C0009E81AF81B88529853A854B855C85BC01C6
:1003D000CD01D1D2DC01CB0189839A83AB83BC836D
:1003E00089819A81AB81BC81892B8A2B8B2B29F443
:1003F00089859A85AB85BC8511C089859A85AB8531
:10040000BC858D839E83AF83B88789819A81AB81B8
:10041000BC8189879A87AB87BC87D1CFBC01CD01CE
:100420002C960FB6F894DEBF0FBECDBFDF91CF91F3
:100430000895CF93DF9300D0CDB7DEB79A83898339
:1004400089819A8181309105A1F1823091051CF456
:10045000892B39F039C082309105A9F00397F1F06A
:1004600033C080914A01813029F482E090E09A8380
:1004700089832DC080914A01823049F583E090E064
:100480009A83898324C090914A0181E0913009F0D8
:1004900080E0882F90E09A8389831AC090914A0166
:1004A00081E0923009F080E0882F90E09A83898380
:1004B0000FC090914A0181E0992309F480E0882FD0
:1004C00090E09A83898304C01A82198201C00000D7
:1004D00089819A818130910509F445C08230910566
:1004E00024F4892B09F441C045C08230910519F0EC
:1004F0000397E9F03FC080914701909148018697AA
:10050000B0F5809145019091460101969093460186
:100510008093450180914701909148010196909305
:1005200048018093470181E08093490120C0809178
:10053000450190914601892BE1F080914501909110
:1005400046010197909346018093450180914701B0
:10055000909148010197909348018093470181E071
:100560008093490106C0000005C0000003C00000E0
:1005700001C0000089819A810F900F90DF91CF9187
:100580000895CF93DF9300D000D0CDB7DEB79C8322
:100590008B838B819C81009719F0019749F005C0EE
:1005A00081E090E09C838B8304C01C821B8201C08D
:1005B00000008B819C81009739F1019709F025C0DB
:1005C000809149018823E9F07FDD80914501909178
:1005D00046019A8389830CC089819A818C5F9E4FE2
:1005E000FC018081AADD89819A8101969A838983A1
:1005F00029813A8180914701909148012817390754
:1006000058F31092490101C000008B819C810F902A
:100610000F900F900F90DF91CF9108950F931F933C
:10062000CF93DF93CDB7DEB7A2970FB6F894DEBFB6
:100630000FBECDBF81E290E0FC01108282E290E02B
:100640002FEFFC01208387E290E02FEFFC01208355
:1006500088E290E0FC0110828AE290E02FEFFC013A
:1006600020838BE290E0FC01108282E390E0A0E026
:10067000B0E08D839E83AF83B88782E390E0A0E0F3
:10068000B0E089879A87AB87BC8781E090E0A0E0E3
:10069000B0E08D879E87AF87B88B29853A854B85DB
:1006A0005C858D819E81AF81B885BC01CD0175DEF1
:1006B000DC01CB018D879E87AF87B88B8D859E85AA
:1006C000AF85B889898B9A8BAB8BBC8B8D819E81D2
:1006D000AF81B88529893A894B895C89BC01CD01F4
:1006E0004AD1DA01C9018D8B9E8BAF8BB88F89857A
:1006F0009A85AB85BC8529893A894B895C89BC017F
:10070000CD0139D1DA01C901898F9A8FAB8FBC8FA6
:100710008FE291E098A38F8F8AE391E09AA389A357
:1007200082E090E09E8F8D8F8FEF80932F018D89D7
:100730009E89AF89B88D8093300190933101A09349
:100740003201B09333018D899E89AF89B88D809332
:10075000340190933501A0933601B093370189E1BC
:1007600092E090933901809338018FEF80933A01A2
:10077000898D9A8DAB8DBC8D80933B0190933C010C
:10078000A0933D01B0933E01898D9A8DAB8DBC8DB8
:1007900080933F0190934001A0934101B0934201A7
:1007A00081EC92E0909344018093430189899A8976
:1007B000AB89BC89BC01CD011FDD4CDD85DC10920D
:1007C00046011092450180E190E0909348018093AA
:1007D000470180914501909146019A8389830CC01D
:1007E00089819A818C5F9E4FFC018081A6DC898182
:1007F0009A8101969A83898329813A818091470160
:10080000909148012817390758F380E290E0FC01E5
:1008100080818095837080934A011C821B829BC0DB
:100820008B819C81880F991F9E012F5F3F4F820F04
:10083000931F4E96FC0180819181FC0125813681B8
:10084000478150858B819C81880F991FBE016F5F06
:100850007F4F860F971F4E96FC0180819181FC018E
:1008600081819281A381B481281739074A075B07E8
:1008700009F045C08B819C81880F991F9E012F5FD5
:100880003F4F820F931F4E96FC01008111818B8197
:100890009C81880F991F9E012F5F3F4F820F931FEE
:1008A0004E96FC0180819181FC01218532858B81EE
:1008B0009C81880F991FAE014F5F5F4F840F951F7A
:1008C0004E96FC0180819181FC018081082E000CF4
:1008D000990BF9010995F80180838B819C81880F20
:1008E000991F9E012F5F3F4F820F931F4E96FC0171
:1008F00080819181FC0115821682178210868B817E
:100900009C81880F991F9E012F5F3F4F820F931F7D
:100910004E96FC01208131818B819C81880F991F2B
:10092000AE014F5F5F4F840F951F4E96FC01808193
:100930009181FC0185819681A781B0850196A11DD9
:10094000B11DF90185839683A783B0878B819C8134
:1009500001969C838B832B813C818D8D9E8D2817E6
:10096000390708F45DCF000080912A018823E1F364
:1009700010922A014ACFA1E21A2EAA1BBB1BFD012D
:100980000DC0AA1FBB1FEE1FFF1FA217B307E4076E
:10099000F50720F0A21BB30BE40BF50B661F771FC6
:1009A000881F991F1A9469F76095709580959095A6
:0E09B0009B01AC01BD01CF010895F894FFCF6B
:1009BE0001000000435331323042206973206C65D0
:1009CE0067656E64202E2E2E207761697420666F07
:0A09DE00722069742044415259212F
:00000001FF
