:100000004CC0000067C0000065C0000063C0000075
:1000100061C000005FC000005DC000005BC0000068
:1000200059C0000057C0000055C0000053C0000078
:1000300051C00000ADC100004DC000004BC0000029
:1000400049C0000047C0000045C0000043C0000098
:1000500041C000003FC000003DC000003BC00000A8
:1000600039C0000037C0000035C0000033C00000B8
:1000700031C000002FC000002DC000002BC00000C8
:1000800029C0000027C0000025C000005403590308
:100090008C039803A403B003BC0311241FBECFEF4D
:1000A000D0E4DEBFCDBF11E0A0E0B1E0E4E7F0E1D5
:1000B00000E00BBF02C007900D92AA32B107D9F73A
:1000C00021E0AAE2B1E001C01D92A837B207E1F732
:1000D0000ED5CEC795CFCF93DF93CDB7DEB781E0F6
:1000E0001AD00000DF91CF910895CF93DF93CDB761
:1000F000DEB784E690E0ACD088E30DD086E00BD08C
:100100008FE009D081E007D08AE090E0A1D0000024
:10011000DF91CF910895CF93DF931F92CDB7DEB7D4
:1001200089838BE290E02BE230E0F90120812F7B84
:10013000FC01208388E290E02981FC0120838BE28E
:1001400090E02BE230E0F90120812068FC0120835F
:1001500000008BE290E02BE230E0F90120812F7764
:10016000FC01208382E090E073D000000F90DF91CB
:10017000CF910895CF93DF931F92CDB7DEB78983D8
:100180008BE290E02BE230E0F90120812064FC0159
:10019000208388E290E02981FC0120838BE290E0BB
:1001A0002BE230E0F90120812068FC01208300006F
:1001B0008BE290E02BE230E0F90120812F77FC0107
:1001C000208381E090E044D000000F90DF91CF9138
:1001D0000895CF93DF9300D000D0CDB7DEB78A83E8
:1001E0007C836B8378DF8A8189830FC0898191E06A
:1001F000980F998318D08B819C819C012F5F3F4F72
:100200003C832B83FC018081B5DF8B819C81FC01C9
:100210008081882359F700000F900F900F900F9066
:10022000DF91CF910895CF93DF931F92CDB7DEB7C3
:1002300089838981813120F4898181586CDF03C0F1
:100240008981815568DF00000F90DF91CF9108957B
:10025000CF93DF9300D000D000D0CDB7DEB79E8320
:100260008D831A82198213C01C821B8206C0000073
:100270008B819C8101969C838B838B819C818730B1
:100280009340ACF389819A8101969A83898329816D
:100290003A818D819E812817390734F30000269614
:1002A0000FB6F894DEBF0FBECDBFDF91CF9108959A
:1002B000CF93DF9300D000D0CDB7DEB769837A83C8
:1002C0008B839C8389819A81AB81BC81809300015F
:1002D00090930101A0930201B0930301809100016A
:1002E00090910101A0910201B091030180932B0133
:1002F00090932C01A0932D01B0932E0100000F903C
:100300000F900F900F90DF91CF910895CF93DF93CF
:10031000CDB7DEB781E890E02BE0FC01208388E8D0
:1003200090E02DE730E0FC01318320838FE690E000
:1003300022E0FC01208384E890E0FC01118210821D
:100340008091000190910101A0910201B0910301FF
:1003500080932B0190932C01A0932D01B0932E013B
:100360008FE590E02FE530E0F90120812068FC0165
:1003700020830000DF91CF910895CF93DF93CDB715
:10038000DEB781E080932A010000DF91CF910895CC
:100390001F920F9200905F000F92112400905B005B
:1003A0000F922F933F934F935F936F937F938F930E
:1003B0009F93AF93BF93EF93FF93CF93DF93CDB70B
:1003C000DEB780912B0190912C01A0912D01B0916D
:1003D0002E010197A109B10980932B0190932C0163
:1003E000A0932D01B0932E0180912B0190912C01AF
:1003F000A0912D01B0912E01892B8A2B8B2B89F492
:10040000BCDF8091000190910101A0910201B091A7
:10041000030180932B0190932C01A0932D01B093A5
:100420002E010000DF91CF91FF91EF91BF91AF912D
:100430009F918F917F916F915F914F913F912F91FC
:100440000F9000925B000F9000925F000F901F9042
:100450001895CF93DF93CDB7DEB78AE790E02AE710
:1004600030E0F9012081206EFC0120830000DF9143
:10047000CF910895CF93DF9300D01F92CDB7DEB711
:100480008B838CE790E02B8127702064FC01208314
:100490008AE790E02AE730E0F90120812064FC013E
:1004A000208300008AE790E0FC018081882F90E0A3
:1004B00080719927892BB1F38AE790E02AE730E031
:1004C000F90120812061FC01208388E790E0FC0194
:1004D0008081882F90E09A83898389E790E0FC01EE
:1004E0008081882F90E0982F882729813A81820F78
:1004F000931F9A83898389819A810F900F900F901F
:10050000DF91CF910895CF93DF93CDB7DEB72C97CE
:100510000FB6F894DEBF0FBECDBF6D837E838F8391
:10052000988729873A874B875C878D819E81AF8129
:10053000B88529853A854B855C85BC01CD016DD593
:10054000DC01CB0189839A83AB83BC8389819A8147
:10055000AB81BC81892B8A2B8B2B29F489859A85C9
:10056000AB85BC8511C089859A85AB85BC858D839B
:100570009E83AF83B88789819A81AB81BC8189874B
:100580009A87AB87BC87D1CFBC01CD012C960FB623
:10059000F894DEBF0FBECDBFDF91CF910895CF930A
:1005A000DF9300D0CDB7DEB79A83898389819A81A2
:1005B0008130910589F0823091051CF4892B39F046
:1005C0002FC082309105A1F00397F1F029C081E09E
:1005D00090E09A83898327C080916701882319F06E
:1005E00082E090E002C081E090E09A8389831BC0A2
:1005F00080916701882319F083E090E002C081E0D8
:1006000090E09A8389830FC080916701882319F451
:1006100081E090E002C083E090E09A83898303C088
:100620001A821982000089819A8181309105A9F08E
:10063000823091051CF4892B91F014C08230910511
:1006400019F0039771F00EC09091660181E0992333
:1006500009F080E08093660105C0000003C000003F
:1006600001C0000089819A810F900F90DF91CF9196
:100670000895CF93DF9300D0CDB7DEB79A838983F7
:1006800089819A81092E000CAA0BBB0B40E050E037
:1006900026E030E0841B950B2817390708F478C052
:1006A0008A5B9F4FFC01DBC481E090E09A838983E1
:1006B00073C080916E01882309F06DC0809166013E
:1006C000882309F068C080917501813029F482E0A7
:1006D00090E09A8389835FC080917501823029F40C
:1006E00083E090E09A83898356C0809175018330BE
:1006F00029F484E090E09A8389834DC0809175014C
:10070000843029F485E090E09A83898344C081E0B5
:1007100090E09A8389833FC080917501813019F4FC
:1007200086E090E002C081E090E09A83898334C043
:1007300080917501823019F486E090E002C081E07A
:1007400090E09A83898328C080917501833019F4E1
:1007500086E090E002C081E090E09A8389831CC02B
:1007600080917501843019F486E090E002C081E048
:1007700090E09A83898310C080917501882319F4D1
:1007800081E090E002C086E090E09A83898304C013
:100790001A82198201C0000089819A8182309105F4
:1007A00089F0833091052CF40097D9F10197D9F1A4
:1007B00041C084309105C9F0843091056CF00597F3
:1007C00011F138C080910401813178F180910401E8
:1007D00080518093040129C080910401813128F463
:1007E000809104018F5E8093040180910401813126
:1007F000F1F0809104018130D1F0809104018150A9
:100800008093040114C080910401803191F08091A3
:100810000401803271F0809104018F5F80930401A4
:1008200008C0000007C0000005C0000003C00000B1
:1008300001C0000089819A810F900F90DF91CF91C4
:100840000895CF93DF9300D0CDB7DEB79A83898325
:1008500089819A81009719F0019749F005C081E0DC
:1008600090E09A83898304C01A82198201C0000033
:1008700089819A81009709F447C0019709F047C020
:1008800080916601882309F041C080916C0181301C
:1008900021F480E180936C0105C080916C0181504E
:1008A00080936C0180916801813121F480E2809312
:1008B000680105C080916801815080936801809132
:1008C0007601813021F480E18093760105C080912A
:1008D000760181508093760180916901813121F404
:1008E00080E28093690105C0809169018150809305
:1008F0006901F1DB80916C0196DC80916D013ADC3D
:100900008091040190DC02C0000001C000008981D8
:100910009A810F900F90DF91CF910895CF93DF933D
:1009200000D0CDB7DEB79A83898389819A818130DF
:10093000910581F0823091051CF4892B39F025C096
:100940008230910591F00397A9F01FC081E090E0FB
:100950009A8389839091040180916C019817C1F466
:1009600082E090E09A83898313C083E090E09A83C9
:10097000898311C080916701882361F081E090E054
:100980009A83898310926E0105C01A82198203C06E
:10099000000001C0000089819A818130910551F1E8
:1009A000823091051CF4892B39F127C082309105E2
:1009B00019F0039779F021C081E08093660181E00E
:1009C00080936E0188DB65E071E082E002DC82E109
:1009D0002ADC13C08FE080936C018BE18093680167
:1009E00087E08093760183E18093690182E08093C0
:1009F000040103C0000001C0000089819A810F90AA
:100A00000F90DF91CF910895CF93DF9300D0CDB7B2
:100A1000DEB79A83898389819A818130910551F06B
:100A20008230910561F0892B79F481E090E09A831E
:100A300089830DC082E090E09A83898308C081E0B9
:100A400090E09A83898303C01A8219820000898109
:100A50009A818130910539F08230910559F0892BC6
:100A600009F43DC03DC080E005DD909374018093A2
:100A7000730136C081E0FEDC90936B0180936A01C4
:100A800080917301909174018130934020F084E053
:100A90008093750125C080916A0190916B018B371D
:100AA000934020F081E0809375011AC080916A0123
:100AB00090916B018736914020F482E0809375011C
:100AC0000FC08091730190917401883C910520F4CE
:100AD00083E08093750104C01092750101C000008D
:100AE00089819A810F900F90DF91CF9108950F9394
:100AF0001F93CF93DF93CDB7DEB7EE970FB6F89481
:100B0000DEBF0FBECDBF81E290E0FC01108282E229
:100B100090E024E0FC01208387E290E02FEFFC01CD
:100B2000208388E290E0FC0110828AE290E02FEFBF
:100B3000FC0120838BE290E0FC01108284E690E0CF
:100B4000A0E0B0E08B839C83AD83BE8384E690E01D
:100B5000A0E0B0E08F839887A987BA878CE291E004
:100B6000A0E0B0E08B879C87AD87BE8784E690E0ED
:100B7000A0E0B0E08F87988BA98BBA8B8CE390E0D4
:100B8000A0E0B0E08B8B9C8BAD8BBE8B81E090E0C6
:100B9000A0E0B0E08F8B988FA98FBA8F2F81388516
:100BA00049855A858B819C81AD81BE81BC01CD0177
:100BB000AADCDC01CB018F8B988FA98FBA8F2B8594
:100BC0003C854D855E858F89988DA98DBA8DBC0138
:100BD000CD0199DCDC01CB018F8B988FA98FBA8F67
:100BE0002F85388949895A898F89988DA98DBA8D21
:100BF000BC01CD0188DCDC01CB018F8B988FA98FE4
:100C0000BA8F2B893C894D895E898F89988DA98DF2
:100C1000BA8DBC01CD0177DCDC01CB018F8B988FC5
:100C2000A98FBA8F8F89988DA98DBA8D8B8F9C8F44
:100C3000AD8FBE8F8B819C81AD81BE812B8D3C8D14
:100C40004D8D5E8DBC01CD01E8D1DA01C9018F8FD8
:100C500098A3A9A3BAA38F819885A985BA852B8D5E
:100C60003C8D4D8D5E8DBC01CD01D7D1DA01C9011E
:100C70008BA39CA3ADA3BEA38B859C85AD85BE85B0
:100C80002B8D3C8D4D8D5E8DBC01CD01C6D1DA0121
:100C9000C9018FA398A7A9A7BAA78F859889A98901
:100CA000BA892B8D3C8D4D8D5E8DBC01CD01B5D1AA
:100CB000DA01C9018BA79CA7ADA7BEA78B899C8928
:100CC000AD89BE892B8D3C8D4D8D5E8DBC01CD01D6
:100CD000A4D1DA01C9018FA798ABA9ABBAAB8AE05E
:100CE000E0E2F1E0DE01D59601900D928A95E1F700
:100CF00085E090E09CAB8BAB8FEF80932F018F8DC5
:100D000098A1A9A1BAA18093300190933101A09339
:100D10003201B09333018F8D98A1A9A1BAA180931C
:100D2000340190933501A0933601B09337018FECD5
:100D300092E090933901809338018FEF80933A01CC
:100D40008BA19CA1ADA1BEA180933B0190933C01DE
:100D5000A0933D01B0933E018BA19CA1ADA1BEA18A
:100D600080933F0190934001A0934101B0934201D1
:100D700089E393E090934401809343018FEF809344
:100D800045018FA198A5A9A5BAA580934601909386
:100D90004701A0934801B09349018FA198A5A9A547
:100DA000BAA580934A0190934B01A0934C01B09354
:100DB0004D0181E294E090934F0180934E018FEFBB
:100DC000809350018BA59CA5ADA5BEA58093510134
:100DD00090935201A0935301B09354018BA59CA50D
:100DE000ADA5BEA58093550190935601A0935701E0
:100DF000B09358018EE894E090935A018093590182
:100E00008FEF80935B018FA598A9A9A9BAA98093B8
:100E10005C0190935D01A0935E01B0935F018FA58B
:100E200098A9A9A9BAA98093600190936101A093A0
:100E30006201B093630184E095E090936501809333
:100E400064018B8D9C8DAD8DBE8DBC01CD0130DAE2
:100E50005DDA4BD940D9FDDA83E280936D011092BF
:100E600066018FE080936C018BE18093680187E0DD
:100E70008093760183E18093690180916C01D3D9DD
:100E800080916D0177D980916801CDD980916D01F4
:100E900071D980917601C7D980916D016BD980910C
:100EA0006901C1D980916D0165D982E0BCD980E228
:100EB00090E0FC01808180958470809367011A82A4
:100EC00019829BC089819A81880F991F9E012F5F8B
:100ED0003F4F820F931FC496FC0180819181FC01DA
:100EE000258136814781508589819A81880F991F94
:100EF000BE016F5F7F4F860F971FC496FC018081F4
:100F00009181FC0181819281A381B48128173907E5
:100F10004A075B0709F045C089819A81880F991FAC
:100F20009E012F5F3F4F820F931FC496FC010081EB
:100F3000118189819A81880F991F9E012F5F3F4FF0
:100F4000820F931FC496FC0180819181FC01218551
:100F5000328589819A81880F991FAE014F5F5F4F5B
:100F6000840F951FC496FC0180819181FC018081D2
:100F7000082E000C990BF9010995F80180838981ED
:100F80009A81880F991F9E012F5F3F4F820F931FF9
:100F9000C496FC0180819181FC0115821682178222
:100FA000108689819A81880F991F9E012F5F3F4F7C
:100FB000820F931FC496FC012081318189819A811F
:100FC000880F991FAE014F5F5F4F840F951FC49626
:100FD000FC0180819181FC0185819681A781B0858A
:100FE0000196A11DB11DF90185839683A783B08762
:100FF00089819A8101969A83898329813A818BA973
:101000009CA92817390708F45DCF000080912A01B8
:101010008823E1F310922A014ACFA1E21A2EAA1BDB
:10102000BB1BFD010DC0AA1FBB1FEE1FFF1FA21798
:10103000B307E407F50720F0A21BB30BE40BF50B95
:10104000661F771F881F991F1A9469F7609570951E
:10105000809590959B01AC01BD01CF010895EE0FE5
:10106000FF1F0024001C0BBE0790F691E02D099491
:04107000F894FFCF22
:10107400010000000254525920414741494E3F208B
:1010840020202020203E205945532020204E4F0070
:0A1094002F013A01450150015B01F4
:00000001FF
