:1000000045C0000060C000005EC000005CC0000091
:100010005AC0000058C0000056C0000054C0000084
:1000200052C0000050C000004EC000004CC0000094
:100030004AC000006DC0000046C0000044C000007F
:1000400042C0000040C000003EC000003CC00000B4
:100050003AC0000038C0000036C0000034C00000C4
:1000600032C0000030C000002EC000002CC00000D4
:100070002AC0000028C0000026C0000024C00000E4
:1000800022C0000020C000001EC0000011241FBEBE
:10009000CFEFD0E4DEBFCDBF11E0A0E0B1E0E0EEF5
:1000A000F2E000E00BBF02C007900D92A430B10750
:1000B000D9F721E0A4E0B1E001C01D92AE30B20753
:1000C000E1F7D0D00BC19CCF8BE0809381008DE70E
:1000D00090E0909389008093880082E080936F0085
:1000E000109285001092840080910001909101018E
:1000F000A0910201B0910301809304019093050146
:10010000A0930601B09307018FB780688FBF089551
:100110001F920F920FB60F9211248F939F93AF935C
:10012000BF938091040190910501A0910601B091C7
:1001300007010197A109B10980930401909305017A
:10014000A0930601B0930701892B8A2B8B2B99F47E
:1001500081E0809308018091000190910101A091BC
:100160000201B09103018093040190930501A093D3
:100170000601B0930701BF91AF919F918F910F90AE
:100180000FBE0F901F9018956093000170930101AE
:100190008093020190930301609304017093050121
:1001A0008093060190930701089580910B0181309F
:1001B00051F028F0823059F0833069F010C081E0AE
:1001C00080930B0112C082E080930B0112C083E088
:1001D00080930B0112C081E080930B0106C0823036
:1001E00041F0833051F0813059F481E080930A016D
:1001F000089582E080930A01089584E080930A01C3
:10020000089580910D01813041F018F0823049F05D
:100210000CC081E080930D010DC082E080930D0140
:100220000CC081E080930D0105C0813019F082304F
:1002300021F0089510920901089588E08093090142
:10024000089580910C01811104C081E080930C011C
:1002500002C0813031F49091090180910A01892B0B
:1002600085B908958FEF84B915B864E670E080E031
:1002700090E08ADF29DF10920B0110920D01812C92
:10028000912C5401C12CD12C76010FC08EDF812C12
:10029000912C540188EEC81683E0D806E104F104DD
:1002A00020F0AFDFC12CD12C7601CBDF809108018B
:1002B0008823E1F31092080184E6C80ED11CE11CEA
:1002C000F11C84E6880E911CA11CB11C8CE28816DE
:1002D00081E09806A104B104E8F2D8CFF894FFCFEA
:0402E0000100000019
:00000001FF
