:1000000045C0000060C000005EC000005CC0000091
:100010005AC0000058C0000056C0000054C0000084
:1000200052C0000050C000004EC000004CC0000094
:100030004AC0000048C0000046C0000044C00000A4
:1000400042C0000040C000003EC000003CC00000B4
:100050003AC0000038C0000036C0000034C00000C4
:1000600032C0000030C000002EC000002CC00000D4
:100070002AC0000028C0000026C0000024C00000E4
:1000800022C0000020C000001EC0000011241FBEBE
:10009000CFEFD0E4DEBFCDBF12E0A0E0B1E0E2E6FA
:1000A000F7E000E00BBF02C007900D92A434B10747
:1000B000D9F722E0A4E4B2E001C01D92A035B20756
:1000C000E1F784D14CC39CCF0F931F93CF93DF9361
:1000D00000D000D0CDB7DEB769837A838B839C8351
:1000E0008091480290914902A0914A02B0914B023E
:1000F0009C01AD0169817A818B819C81B7D1882374
:1001000009F46CC020E030E0A90169817A818B811B
:100110009C81ACD1882351F485E490E025E430E063
:10012000F90120812870FC01208309C085E490E05A
:1001300025E430E0F90120812360FC01208328E5DB
:1001400039E344E75FE369817A818B819C818ED1B9
:10015000882334F487E490E02FEFFC0120832EC045
:1001600020E034E244EF56E469817A818B819C81FE
:100170008FD218162CF487E490E0FC0110821EC088
:1001800007E410E020E030E040E053E469817A8148
:100190008B819C8181D2DC01CB019C01AD0160E0AF
:1001A00074E284EF9AE466D1DC01CB01BC01CD019D
:1001B000C9D1DC01CB018150F801808386E490E055
:1001C000FC01108289819A81AB81BC8180934802B5
:1001D00090934902A0934A02B0934B0200000F9003
:1001E0000F900F900F90DF91CF911F910F91089575
:1001F000CF93DF93CDB7DEB784E490E021E4FC0138
:10020000208385E490E02BE0FC01208360E070E037
:10021000CB015ADF0000DF91CF910895CF93DF9398
:10022000CDB7DEB780914C0290914D02813091059F
:1002300089F08130910538F082309105C9F003973B
:1002400009F458C07DC081E090E090934D02809306
:100250004C0276C080914402813019F482E090E033
:1002600002C081E090E090934D0280934C0268C000
:1002700080914502882F90E0880F991F880F991F61
:1002800080509F4FFC0180819181A281B38120E049
:1002900030E0A901BC01CD01E9D0882369F481E0F7
:1002A00090E090934D0280934C021092470210927E
:1002B00046021092450241C080914502882F90E08D
:1002C000880F991F8C559E4FFC01808191819C0164
:1002D00080914602909147028217930770F183E064
:1002E00090E090934D0280934C021092470210923E
:1002F000460223C080914502882F90E0880F991F05
:100300008C509E4FFC01808191819C01809146021E
:10031000909147028217930790F082E090E09093CB
:100320004D0280934C021092470210924602809137
:1003300045028F5F8093450202C0000001C00000AB
:1003400080914C0290914D028130910549F08130AD
:100350009105B8F18230910551F0039721F132C037
:100360001092470210924602109245022BC08091D3
:100370004502882F90E0880F991F880F991F8050A1
:100380009F4FFC0180819181A281B381BC01CD018D
:100390009BDE80914602909147020196909347021E
:1003A000809346020FC060E070E0CB018DDE80914B
:1003B000460290914702019690934702809346022D
:1003C00001C000000000DF91CF910895CF93DF932B
:1003D000CDB7DEB781E290E0FC01108282E290E0CE
:1003E0002FEFFC01208384E290E028E0FC012083D1
:1003F00085E290E0FC011082FBDE0EC080914E028F
:1004000090914F02019690934F0280934E028091FB
:1004100045028F5F8093450280914502882F90E0CE
:10042000880F991F880F991F80509F4FFC01808172
:100430009181A281B38120E030E0A901BC01CD010E
:1004400015D08823D9F61092450280E290E0FC0195
:100450008081882F90E08170992721E0892B09F015
:1004600020E0822F80934402D9DEEFCF9CD008F4A5
:1004700081E008950CD0D2C0CAD040F0C1D030F095
:1004800021F45F3F19F0B3C05111FCC0B6C0D7D002
:1004900098F39923C9F35523B1F3951B550BBB274B
:1004A000AA2762177307840738F09F5F5F4F220FF8
:1004B000331F441FAA1FA9F333D00E2E3AF0E0E8F1
:1004C00030D091505040E695001CCAF729D0FE2F3D
:1004D00027D0660F771F881FBB1F261737074807CF
:1004E000AB07B0E809F0BB0B802DBF01FF27935885
:1004F0005F4F2AF09E3F510568F079C0C3C05F3F4F
:10050000ECF3983EDCF3869577956795B795F7956C
:100510009F5FC9F7880F911D9695879597F9089564
:10052000E1E0660F771F881FBB1F62177307840700
:10053000BA0720F0621B730B840BBA0BEE1F88F70F
:10054000E095089504D06894B1119CC008957FD0BF
:1005500088F09F5790F0B92F9927B751A0F0D1F0AC
:10056000660F771F881F991F1AF0BA95C9F712C036
:10057000B13081F086D0B1E0089583C0672F782F25
:100580008827B85F39F0B93FCCF3869577956795A2
:10059000B395D9F73EF490958095709561957F4F0E
:1005A0008F4F9F4F0895990F0008550FAA0BE0E851
:1005B000FEEF16161706E807F907C0F01216130625
:1005C000E407F50798F0621B730B840B950B39F465
:1005D0000A2661F0232B242B252B21F408950A26CB
:1005E00009F4A140A6958FEF811D811D089597F90B
:1005F0009F6780E870E060E008959FEF80EC0895C9
:1006000000240A94161617061806090608950024F1
:100610000A9412161306140605060895092E03946B
:10062000000C11F4882352F0BB0F40F4BF2B11F4DF
:1006300060FF04C06F5F7F4F8F4F9F4F089557FD3E
:100640009058440F551F59F05F3F71F04795880F40
:1006500097FB991F61F09F3F79F0879508951216D7
:1006600013061406551FF2CF4695F1DF08C0161683
:1006700017061806991FF1CF869571056105089434
:100680000895E894BB2766277727CB0197F908954B
:100690008ADF08F48FEF08950BD0C0CFB1DF28F0C8
:1006A000B6DF18F0952309F0A2CFA7CF1124EACF27
:1006B000C6DFA0F3959FD1F3950F50E0551F629FC1
:1006C000F001729FBB27F00DB11D639FAA27F00DAB
:1006D000B11DAA1F649F6627B00DA11D661F829FD2
:1006E0002227B00DA11D621F739FB00DA11D621FB7
:1006F000839FA00D611D221F749F3327A00D611DD4
:10070000231F849F600D211D822F762F6A2F1124B5
:100710009F5750408AF0E1F088234AF0EE0FFF1F08
:10072000BB1F661F771F881F91505040A9F79E3F3F
:10073000510570F05CCFA6CF5F3FECF3983EDCF341
:10074000869577956795B795F795E7959F5FC1F77C
:10075000FE2B880F911D9695879597F90895F8942B
:02076000FFCFC9
:100762001FD512441FD512441FD5924400005C4489
:100772000AA74F4400004444719D2E441FD51244E1
:10078200719D2E440000444400D0024400D0024433
:100792001FD5924400005C440AA74F440000444421
:1007A200719D2E441FD51244719D2E440000444475
:1007B200A4F0F643A4F0F6431FD5924400005C4433
:1007C2000AA74F4400004444719D2E441FD5124491
:1007D200719D2E44000044440000DC430000DC43D1
:1007E2001FD5924400005C440AA74F4400004444D1
:1007F200719D2E441FD51244719D2E440000444425
:1008020000000000D007D007A00FA00F88138813A4
:100812007017D007D007D007D007D007A00FA00FBE
:10082200881388137017D007D007D007D007D007D6
:10083200A00FA00F881388137017D007D007D00716
:10084200D007D007A00FA00F881388137017D00706
:10085200D007D007D007D007B80B1027D007D00792
:10086200E803D007E803E803D007D007B80B102746
:10087200D007D007E803D007E803E803D007D00782
:10088200B80B1027D007D007E803D007E803E80326
:10089200D007D007B80B1027D007D007E803D0073E
:0408A200E803E8037C
:00000001FF
