S025000061746F72723034385F737472616E3035305F6C616231305F70617274332E73726563E7
S113000045C0000060C000005EC000005CC000008D
S11300105AC0000058C0000056C0000054C0000080
S113002052C0000050C000004EC000004CC0000090
S11300304AC000008BC0000046C0000044C000005D
S113004042C0000040C000003EC000003CC00000B0
S11300503AC0000038C0000036C0000034C00000C0
S113006032C0000030C000002EC000002CC00000D0
S11300702AC0000028C0000026C0000024C00000E0
S113008022C0000020C000001EC0000011241FBEBA
S1130090CFEFD0E4DEBFCDBF11E0A0E0B1E0E0E2FD
S11300A0FAE000E00BBF02C007900D92A430B10744
S11300B0D9F721E0A4E0B1E001C01D92A831B20754
S11300C0E1F784D2ABC49CCFCF93DF93CDB7DEB737
S11300D081E890E02BE0FC01208388E890E02DE7A4
S11300E030E0FC01318320838FE690E022E0FC01C4
S11300F0208384E890E0FC01118210828091000149
S113010090910101A0910201B09103018093080133
S113011090930901A0930A01B0930B018FE590E03D
S11301202FE530E0F90120812068FC0120830000E4
S1130130DF91CF910895CF93DF93CDB7DEB781E000
S1130140809307010000DF91CF9108951F920F92D1
S113015000905F000F92112400905B000F922F9388
S11301603F934F935F936F937F938F939F93AF933B
S1130170BF93EF93FF93CF93DF93CDB7DEB7809117
S1130180080190910901A0910A01B0910B01019716
S1130190A109B1098093080190930901A0930A0170
S11301A0B0930B018091080190910901A0910A017B
S11301B0B0910B01892B8A2B8B2B89F4BCDF8091A6
S11301C0000190910101A0910201B091030180937B
S11301D0080190930901A0930A01B0930B01000058
S11301E0DF91CF91FF91EF91BF91AF919F918F914B
S11301F07F916F915F914F913F912F910F9000925A
S11302005B000F9000925F000F901F901895CF93A2
S1130210DF9300D000D0CDB7DEB769837A838B83B8
S11302209C8389819A81AB81BC81809300019093E6
S11302300101A0930201B093030180910001909108
S11302400101A0910201B0910301809308019093F0
S11302500901A0930A01B0930B0100000F900F90C5
S11302600F900F90DF91CF9108950F931F93CF9329
S1130270DF9300D000D0CDB7DEB769837A838B8358
S11302809C8380910C0190910D01A0910E01B0917D
S11302900F019C01AD0169817A818B819C8145D2DA
S11302A0882309F46CC020E030E0A90169817A81D7
S11302B08B819C813AD2882351F485E490E025E433
S11302C030E0F90120812870FC01208309C085E415
S11302D090E025E430E0F90120812360FC012083D3
S11302E028E539E344E75FE369817A818B819C8166
S11302F01CD2882334F487E490E02FEFFC012083A0
S11303002EC020E034E244EF56E469817A818B8187
S11303109C811DD318162CF487E490E0FC01108214
S11303201EC007E410E020E030E040E053E46981BF
S11303307A818B819C810FD3DC01CB019C01AD01BF
S113034060E074E284EF9AE4F4D1DC01CB01BC01F7
S1130350CD0157D2DC01CB018150F801808386E4C2
S113036090E0FC01108289819A81AB81BC818093E9
S11303700C0190930D01A0930E01B0930F010000A6
S11303800F900F900F900F90DF91CF911F910F91CD
S11303900895CF93DF93CDB7DEB784E490E021E4F2
S11303A0FC01208385E490E02BE0FC01208360E0E5
S11303B070E0CB015ADF0000DF91CF910895CF9315
S11303C0DF93CDB7DEB78091100190911101813098
S11303D0910581F08130910530F08230910589F0EA
S11303E00397B1F01CC081E090E0909311018093D9
S11303F0100115C082E090E09093110180931001E8
S11304000EC083E090E0909311018093100107C027
S113041081E090E09093110180931001000080919D
S11304201001909111018130910549F081309105BD
S113043090F08230910539F0039749F00DC081E0C6
S11304408093040109C082E08093040105C084E024
S11304508093040101C000000000DF91CF91089552
S1130460CF93DF93CDB7DEB780911401909115013E
S11304708130910569F08130910518F0029779F087
S113048015C082E090E090931501809314010EC092
S113049082E090E0909315018093140107C081E0FD
S11304A090E0909315018093140100008091140151
S11304B0909115018130910531F08130910550F012
S11304C0029721F008C01092050105C080E18093D5
S11304D0050101C000000000DF91CF910895CF9382
S11304E0DF93CDB7DEB7809116019091170181306B
S11304F0910569F08130910518F00297B1F01CC0A4
S113050081E090E0909317018093160115C08091CB
S11305100601843019F482E090E002C081E090E0AA
S1130520909317018093160107C081E090E09093A7
S11305301701809316010000809116019091170114
S11305408130910531F08130910570F0029731F0DE
S11305500CC060E070E0CB0188DE07C06CE57FEC86
S113056082E893E482DE01C000000000DF91CF91B5
S11305700895CF93DF93CDB7DEB7809112019091A8
S11305801301009719F0019741F008C081E090E051
S1130590909313018093120101C000008091120115
S11305A090911301009769F0019709F00BC085E25F
S11305B090E03091050120910401232BFC0120835C
S11305C001C000000000DF91CF910895CF93DF9325
S11305D0CDB7DEB760970FB6F894DEBF0FBECDBFC0
S11305E081E290E0FC01108282E290E02FEFFC01B6
S11305F0208384E290E02FEFFC01208385E290E0E9
S1130600FC01108219821A821B821C821D821E82A6
S11306101F82188619861A861B861C8682E090E043
S1130620A0E0B0E08D879E87AF87B88BB2DE8D8562
S11306309E85AF85B889BC01CD01E9DD45DD109209
S113064011011092100110921501109214011092D0
S113065017011092160180E290E0FC0180818095E0
S113066084708093060189819A81AB81BC818C322C
S11306709140A105B10528F0A2DE19821A821B82DD
S11306801C828D819E81AF81B885883E9340A105EF
S1130690B10528F0E5DE1D821E821F821886898539
S11306A09A85AB85BC850297A105B10528F017DFB3
S11306B019861A861B861C865CDF00008091070160
S11306C08823E1F3109207012D813E814F815885E3
S11306D08D859E85AF85B889820F931FA41FB51F92
S11306E08D839E83AF83B88729813A814B815C8156
S11306F08D859E85AF85B889820F931FA41FB51F72
S113070089839A83AB83BC8329853A854B855C8531
S11307108D859E85AF85B889820F931FA41FB51F51
S113072089879A87AB87BC8796CF9CD008F481E0F1
S113073008950CD0D2C0CAD040F0C1D030F021F41A
S11307405F3F19F0B3C05111FCC0B6C0D7D098F3C5
S11307509923C9F35523B1F3951B550BBB27AA273E
S113076062177307840738F09F5F5F4F220F331FB0
S1130770441FAA1FA9F333D00E2E3AF0E0E830D07C
S113078091505040E695001CCAF729D0FE2F27D07F
S1130790660F771F881FBB1F261737074807AB074D
S11307A0B0E809F0BB0B802DBF01FF2793585F4FC2
S11307B02AF09E3F510568F079C0C3C05F3FECF357
S11307C0983EDCF3869577956795B795F7959F5F87
S11307D0C9F7880F911D9695879597F90895E1E0DB
S11307E0660F771F881FBB1F621773078407BA073A
S11307F020F0621B730B840BBA0BEE1F88F7E09595
S1130800089504D06894B1119CC008957FD088F0F5
S11308109F5790F0B92F9927B751A0F0D1F0660FE8
S1130820771F881F991F1AF0BA95C9F712C0B13003
S113083081F086D0B1E0089583C0672F782F882790
S1130840B85F39F0B93FCCF3869577956795B39542
S1130850D9F73EF490958095709561957F4F8F4FB1
S11308609F4F0895990F0008550FAA0BE0E8FEEF7B
S113087016161706E807F907C0F012161306E40760
S1130880F50798F0621B730B840B950B39F40A2659
S113089061F0232B242B252B21F408950A2609F437
S11308A0A140A6958FEF811D811D089597F99F673B
S11308B080E870E060E008959FEF80EC08950024E4
S11308C00A941616170618060906089500240A94B1
S11308D012161306140605060895092E0394000C37
S11308E011F4882352F0BB0F40F4BF2B11F460FFC6
S11308F004C06F5F7F4F8F4F9F4F089557FD9058EF
S1130900440F551F59F05F3F71F04795880F97FBCF
S1130910991F61F09F3F79F0879508951216130689
S11309201406551FF2CF4695F1DF08C016161706B8
S11309301806991FF1CF86957105610508940895ED
S1130940E894BB2766277727CB0197F908958ADFB8
S113095008F48FEF08950BD0C0CFB1DF28F0B6DFD5
S113096018F0952309F0A2CFA7CF1124EACFC6DF50
S1130970A0F3959FD1F3950F50E0551F629FF001AE
S1130980729FBB27F00DB11D639FAA27F00DB11D07
S1130990AA1F649F6627B00DA11D661F829F222790
S11309A0B00DA11D621F739FB00DA11D621F839F17
S11309B0A00D611D221F749F3327A00D611D231FED
S11309C0849F600D211D822F762F6A2F11249F573B
S11309D050408AF0E1F088234AF0EE0FFF1FBB1F5E
S11309E0661F771F881F91505040A9F79E3F5105FD
S11309F070F05CCFA6CF5F3FECF3983EDCF38695B6
S1130A0077956795B795F795E7959F5FC1F7FE2BA7
S1130A10880F911D9695879597F90895F894FFCFBF
S1070A2001000000CD
S9030000FC
