S0140000626F6D625F646566757365722E7372656323
S11300005AC0000077C0000075C0000073C0000033
S113001071C000006FC000006DC000006BC0000024
S113002069C0000067C0000065C0000063C0000034
S113003061C00000BDC100005DC000005BC00000E5
S113004059C0000057C0000055C0000053C0000054
S113005051C000004FC000004DC000004BC0000064
S113006049C0000047C0000045C0000043C0000074
S113007041C000003FC000003DC000003BC0000084
S113008039C0000037C0000035C000007B04800484
S1130090A904B504C104CD04D904000870080508F6
S11300A04508320851085D088D089008C908B5084C
S11300B09308A408C90811241FBECFEFD0E4DEBF03
S11300C0CDBF11E0A0E0B1E0E2E3F1E200E00BBF5C
S11300D002C007900D92A837B107D9F722E0A8E72C
S11300E0B1E001C01D92A534B207E1F70E94EF0A06
S11300F00C94971085CFCF93DF93CDB7DEB781E013
S11301001AD00000DF91CF910895CF93DF93CDB73C
S1130110DEB784E690E0ACD088E30DD086E00BD067
S11301208FE009D081E007D08AE090E0A1D0000000
S1130130DF91CF910895CF93DF931F92CDB7DEB7B0
S113014089838BE290E02BE230E0F90120812F7B60
S1130150FC01208388E290E02981FC0120838BE26A
S113016090E02BE230E0F90120812068FC0120833B
S113017000008BE290E02BE230E0F90120812F7740
S1130180FC01208382E090E073D000000F90DF91A7
S1130190CF910895CF93DF931F92CDB7DEB78983B4
S11301A08BE290E02BE230E0F90120812064FC0135
S11301B0208388E290E02981FC0120838BE290E097
S11301C02BE230E0F90120812068FC01208300004B
S11301D08BE290E02BE230E0F90120812F77FC01E3
S11301E0208381E090E044D000000F90DF91CF9114
S11301F00895CF93DF9300D000D0CDB7DEB78A83C4
S11302007C836B8378DF8A8189830FC0898191E045
S1130210980F998318D08B819C819C012F5F3F4F4D
S11302203C832B83FC018081B5DF8B819C81FC01A5
S11302308081882359F700000F900F900F900F9042
S1130240DF91CF910895CF93DF931F92CDB7DEB79F
S113025089838981813120F4898181586CDF03C0CD
S11302608981815568DF00000F90DF91CF91089557
S1130270CF93DF9300D000D000D0CDB7DEB79E83FC
S11302808D831A82198213C01C821B8206C000004F
S11302908B819C8101969C838B838B819C8187308D
S11302A09340ACF389819A8101969A838983298149
S11302B03A818D819E812817390734F300002696F0
S11302C00FB6F894DEBF0FBECDBFDF91CF91089576
S11302D0CF93DF9300D000D0CDB7DEB769837A83A4
S11302E08B839C8389819A81AB81BC818093040137
S11302F090930501A0930601B09307018091040136
S113030090910501A0910601B091070180937901B4
S113031090937A01A0937B01B0937C0100000F902D
S11303200F900F900F90DF91CF910895CF93DF93AB
S1130330CDB7DEB781E890E02BE0FC01208388E8AC
S113034090E02DE730E0FC01318320838FE690E0DC
S113035022E0FC01208384E890E0FC0111821082F9
S11303608091040190910501A0910601B0910701CB
S11303708093790190937A01A0937B01B0937C01DF
S11303808FE590E02FE530E0F90120812068FC0141
S113039020830000DF91CF910895CF93DF93CDB7F1
S11303A0DEB781E0809378010000DF91CF9108955A
S11303B01F920F9200905F000F92112400905B0037
S11303C00F922F933F934F935F936F937F938F93EA
S11303D09F93AF93BF93EF93FF93CF93DF93CDB7E7
S11303E0DEB78091790190917A01A0917B01B0915F
S11303F07C010197A109B1098093790190937A0155
S1130400A0937B01B0937C018091790190917A0152
S1130410A0917B01B0917C01892B8A2B8B2B89F4D1
S1130420BCDF8091040190910501A0910601B09177
S113043007018093790190937A01A0937B01B09393
S11304407C010000DF91CF91FF91EF91BF91AF91BB
S11304509F918F917F916F915F914F913F912F91D8
S11304600F9000925B000F9000925F000F901F901E
S11304701895CF93DF93CDB7DEB78AE790E02AE7EC
S113048030E0F9012081206EFC0120830000DF911F
S1130490CF910895CF93DF9300D01F92CDB7DEB7ED
S11304A08B838CE790E02B8127702064FC012083F0
S11304B08AE790E02AE730E0F90120812064FC011A
S11304C0208300008AE790E0FC018081882F90E07F
S11304D080719927892BB1F38AE790E02AE730E00D
S11304E0F90120812061FC01208388E790E0FC0170
S11304F08081882F90E09A83898389E790E0FC01CA
S11305008081882F90E0982F882729813A81820F53
S1130510931F9A83898389819A810F900F900F90FA
S1130520DF91CF910895CF93DF93CDB7DEB72C97AA
S11305300FB6F894DEBF0FBECDBF6D837E838F836D
S1130540988729873A874B875C878D819E81AF8105
S1130550B88529853A854B855C85BC01CD010E940F
S1130560DC0FDC01CB0189839A83AB83BC83898153
S11305709A81AB81BC81892B8A2B8B2B29F48985A9
S11305809A85AB85BC8511C089859A85AB85BC8568
S11305908D839E83AF83B88789819A81AB81BC8127
S11305A089879A87AB87BC87D0CFBC01CD012C96B5
S11305B00FB6F894DEBF0FBECDBFDF91CF91089583
S11305C0CF93DF9300D0CDB7DEB79A838983898137
S11305D09A818130910589F0823091051CF4892B30
S11305E039F02FC082309105A1F00397F1F029C0B2
S11305F081E090E09A83898327C08091F801882361
S113060019F082E090E002C081E090E09A8389834F
S11306101BC08091F801882319F083E090E002C0A8
S113062081E090E09A8389830FC08091F801882348
S113063019F481E090E002C083E090E09A8389831A
S113064003C01A821982000089819A818130910540
S113065009F427C18230910524F4892B09F423C1BC
S113066027C18230910521F0039709F41EC120C1EE
S113067080917D01882309F01AC180911A0290911A
S11306801B02892BA9F580910801843021F0809107
S113069008018431D9F480910801843021F481E087
S11306A08093440207C080910801843119F481E0E9
S11306B0809319028EE16EDD80911A0290911B02E3
S11306C0019690931B0280931A020EC080911C0223
S11306D0815080931C0280911C0290E2292F281BD8
S11306E0822FB1DD8EE156DD80910801ACDDDFC0E3
S11306F080911A0290911B02019711F580910801D3
S1130700853161F48EE146DD80911A0290911B02DD
S1130710019690931B0280931A020EC080911C02D2
S1130720815080931C0280911C0290E2292F281B87
S1130730822F89DD8EE12EDD8091080184DDB7C032
S113074080911A0290911B02029711F58091080181
S1130750833061F48EE11EDD80911A0290911B02B8
S1130760019690931B0280931A020EC080911C0282
S1130770815080931C0280911C0290E2292F281B37
S1130780822F61DD8EE106DD809108015CDD8FC082
S113079080911A0290911B02039711F58091080130
S11307A0853061F48EE1F6DC80911A0290911B028F
S11307B0019690931B0280931A020EC080911C0232
S11307C0815080931C0280911C0290E2292F281BE7
S11307D0822F39DD8EE1DEDC8091080134DD67C0D3
S11307E080911A0290911B02049711F580910801DF
S11307F0833161F48EE1CEDC80911A0290911B0268
S1130800019690931B0280931A020EC080911C02E1
S1130810815080931C0280911C0290E2292F281B96
S1130820822F11DD8EE1B6DC809108010CDD3FC022
S113083080911A0290911B020597C9F580910801D5
S1130840843021F480911902882341F480910801B5
S11308508431A9F480914402882389F08EE19ADCE2
S113086080911A0290911B02019690931B0280932F
S11308701A028091F90180628093F9010EC080917F
S11308801C02815080931C0280911C0290E2292F4B
S1130890281B822FD8DC8EE17DDC80910801D3DC1B
S11308A006C0000005C0000003C0000001C0000035
S11308B089819A810F900F90DF91CF910895CF9302
S11308C0DF9300D0CDB7DEB79A83898389819A817B
S11308D0092E000CAA0BBB0B40E050E026E030E0F0
S11308E0841B950B2817390708F46FC08A5B9F4F48
S11308F0FC010C94FE0F81E090E09A83898368C028
S113090080912E02813029F482E090E09A838983D9
S11309105FC080912E02823029F483E090E09A83B4
S1130920898356C080912E02833029F484E090E0BC
S11309309A8389834DC080912E02843029F485E006
S113094090E09A83898344C081E090E09A8389830C
S11309503FC080912E02813019F486E090E002C0FD
S113096081E090E09A83898333C080912E028230A3
S113097019F486E090E002C081E090E09A838983D4
S113098027C080912E02833019F486E090E002C0E3
S113099081E090E09A8389831BC080912E02843089
S11309A019F486E090E002C081E090E09A838983A4
S11309B00FC080912E02882319F481E090E002C0D8
S11309C086E090E09A83898303C01A82198200002A
S11309D089819A818230910599F0833091053CF4A4
S11309E0009709F448C0019709F447C047C0843010
S11309F09105F9F08430910584F0059759F13EC0D2
S1130A0080910801813128F0809108018051809300
S1130A1008018091080117DC31C0809108018131FF
S1130A2028F4809108018F5E809308018091080169
S1130A300ADC80910801813149F0809108018130FC
S1130A4029F0809108018150809308018091080168
S1130A50FADB14C080910801803149F080910801CB
S1130A60803229F0809108018F5F80930801809182
S1130A700801E9DB03C0000001C0000089819A81FC
S1130A800F900F90DF91CF910895CF93DF9300D013
S1130A90CDB7DEB79A83898389819A8181309105A4
S1130AA051F08230910561F0892B79F481E090E076
S1130AB09A8389830DC082E090E09A83898308C079
S1130AC081E090E09A83898303C01A82198200002E
S1130AD089819A818130910539F08230910559F0EC
S1130AE0892B09F43DC03DC081E0D4DC9093200201
S1130AF080931F0236C082E0CDDC90930502809380
S1130B00040280911F02909120028130934020F0D2
S1130B1084E080932E0225C0809104029091050206
S1130B208B37934020F081E080932E021AC080918D
S1130B300402909105028736914020F482E080936C
S1130B402E020FC080911F0290912002883C9105D3
S1130B5020F483E080932E0204C010922E0201C080
S1130B60000089819A810F900F90DF91CF910895B1
S1130B70CF93DF9300D0CDB7DEB79A838983898181
S1130B809A8182309105E9F0833091052CF4009725
S1130B9071F0019789F056C08430910509F442C080
S1130BA084309105D4F1059709F441C04BC081E02C
S1130BB090E09A8389834AC082E090E09A83898393
S1130BC045C080913F0290914002A0914102B091B2
S1130BD04202892B8A2B8B2B21F080911C028823C3
S1130BE029F483E090E09A83898330C080917D0169
S1130BF0882329F084E090E09A83898327C0809138
S1130C001102882329F081E090E09A8389831EC031
S1130C1082E090E09A83898319C085E090E09A830A
S1130C20898314C085E090E09A8389830FC0809102
S1130C301102882351F080917D01882331F01A82BA
S1130C40198203C01A82198201C0000089819A8125
S1130C508230910509F478C0833091052CF4009713
S1130C6079F00197F1F0FAC08430910509F4EAC0F3
S1130C70843091050CF4DBC0059709F4EAC0EEC09A
S1130C8080910B0290910C02A0910D02B0910E0282
S1130C9080933F0290934002A0934102B09342029A
S1130CA0DDC080917D01882309F0D5C080913F0289
S1130CB090914002A0914102B09142022AE030E0BA
S1130CC040E050E0BC01CD010E94DC0FDA01C90113
S1130CD08093FA019093FB01A093FC01B093FD0172
S1130CE080913F0290914002A0914102B091420252
S1130CF02AE030E040E050E0BC01CD010E94DC0F6E
S1130D00DC01CB018093000290930102A0930202C4
S1130D10B09303028FE097DA8091FA019091FB017E
S1130D20A091FC01B091FD01805D34DA8091000254
S1130D3090910102A0910202B0910302805D2ADA2F
S1130D408091080180DA87C080917D01882309F0B1
S1130D5084C080913F0290914002A0914102B091E1
S1130D6042020197A109B10980933F029093400286
S1130D70A0934102B093420280910002909101023B
S1130D80A0910202B0910302892B8A2B8B2B01F5CF
S1130D9089E090E0A0E0B0E080930002909301022B
S1130DA0A0930202B09303028091FA019091FB0197
S1130DB0A091FC01B091FD010197A109B1098093B3
S1130DC0FA019093FB01A093FC01B093FD0113C0C1
S1130DD08091000290910102A0910202B09103025D
S1130DE00197A109B1098093000290930102A09395
S1130DF00202B09303028FE026DA8091FA01909107
S1130E00FB01A091FC01B091FD01805DC3D980E19B
S1130E101ADA8091000290910102A0910202B0912D
S1130E200302805DB7D9809108010DDA16C081E014
S1130E3080937D0160D969E071E081E0DAD981E2D3
S1130E4002DA0CC058D969E271E081E0D2D981E2BA
S1130E50FAD9000003C0000001C0000089819A8112
S1130E600F900F90DF91CF910895CF93DF9300D02F
S1130E70CDB7DEB79A83898389819A8181309105C0
S1130E8051F08230910561F0892BB1F481E090E05A
S1130E909A83898314C082E090E09A8389830FC087
S1130EA080911102882319F080E090E002C082E072
S1130EB090E09A83898303C01A8219820000898191
S1130EC09A818130910531F082309105E1F0892BCE
S1130ED0E1F01CC083E0B7D980E55CD984E0B3D9E4
S1130EE085E458D985E0AFD989E454D983E1ABD9F5
S1130EF082E550D984E1A7D985E44CD985E1A3D909
S1130F0088E548D903C0000001C0000089819A81A6
S1130F100F900F90DF91CF910895CF93DF9300D07E
S1130F20CDB7DEB79A83898389819A81813091050F
S1130F3051F08230910561F0892BB1F481E090E0A9
S1130F409A83898314C082E090E09A8389830FC0D6
S1130F5080911102882319F080E090E002C082E0C1
S1130F6090E09A83898303C01A82198200008981E0
S1130F709A818130910531F082309105E1F0892B1D
S1130F80E1F01CC08BE15FD988E404D98CE15BD922
S1130F9085E400D98DE157D981E4FCD88EE153D999
S1130FA08CE4F8D88FE14FD984E5F4D880E24BD9AA
S1130FB088E4F0D803C0000001C0000089819A8150
S1130FC00F900F90DF91CF910895CF93DF9300D0CE
S1130FD0CDB7DEB79A83898389819A81092E000C63
S1130FE0AA0BBB0B40E050E026E030E0841B950BDD
S1130FF02817390708F479C0835B9F4FFC01FEC7AB
S113100082E090E09A83898374C080917D01882373
S1131010F9F48091FF01803229F484E090E09A830E
S1131020898316C08091FF01803429F485E090E023
S11310309A8389830DC08091FF01803829F483E06D
S113104090E09A83898304C082E090E09A83898344
S113105080911102882309F44BC081E090E09A83C7
S1131060898346C08091FF01803251F08091110242
S1131070882319F081E090E005C082E090E002C08E
S113108086E090E09A83898334C08091FF018038A0
S113109019F486E090E002C082E090E09A838983AC
S11310A028C08091FF01803419F486E090E002C0EA
S11310B082E090E09A8389831CC080911102882386
S11310C051F48091FF01882319F482E090E005C077
S11310D086E090E002C081E090E09A83898309C0B1
S11310E086E090E09A83898304C01A82198201C041
S11310F0000089819A81092E000CAA0BBB0B40E0E9
S113110050E026E030E0841B950B2817390708F4DB
S11311103EC08C5A9F4FFC0171C71092F9013AC02E
S11311201092F90137C08091F901882F90E08870FE
S11311309927892B21F08091F901877F03C0809141
S1131140F90188608093F9018091F901882F90E07A
S113115080719927892B21F08091F9018F7E03C03A
S11311608091F90180618093F9018091F901882FC0
S113117090E084709927892B21F08091F9018B7F6D
S113118003C08091F90184608093F90102C00000DA
S113119001C0000089819A810F900F90DF91CF9157
S11311A00895CF93DF9300D0CDB7DEB79A838983B8
S11311B089819A818230910509F454C08330910564
S11311C02CF4009761F0019779F049C084309105BF
S11311D0A9F1843091056CF00597A9F140C081E034
S11311E090E09A8389833FC083E090E09A83898367
S11311F03AC08091F901882F90E08C7199279C0165
S113120035952795359527958091FE01882F90E097
S11312102817390729F482E090E09A83898323C050
S113122080911102882329F084E090E09A838983D5
S11312301AC083E090E09A83898315C085E090E02A
S11312409A83898310C080911102882319F085E064
S113125090E002C081E090E09A83898304C01A82FE
S1131260198201C0000089819A818230910519F1A7
S1131270833091052CF4009721F1019751F026C099
S11312808430910591F084309105ECF00597E9F0F4
S11312901DC004D787709078992324F40197886F30
S11312A09F6F01968093FE0111C08091F9018D7F9B
S11312B08093F9010BC08091F90182608093F90158
S11312C005C0000003C0000001C0000089819A81AC
S11312D00F900F90DF91CF910895CF93DF9300D0BB
S11312E0CDB7DEB79A83898389819A81009719F0F3
S11312F0019749F005C081E090E09A83898303C097
S11313001A82198201C0000089819A81009781F0B4
S1131310019709F00EC08BE290E02091F901FC01E5
S1131320208385E290E020910A02FC01208301C021
S1131330000089819A810F900F90DF91CF910895D9
S1131340CF93DF9300D0CDB7DEB79A8389838981A9
S11313509A81009719F0029749F005C082E090E065
S11313609A83898304C01A82198201C0000089818A
S11313709A810097D1F0029709F01AC08091100267
S1131380882331F080E086D8909337028093360228
S11313908091360290913702892B49F488EE93E0CC
S11313A0909337028093360202C0000001C000000F
S11313B089819A810F900F90DF91CF910895CF93F7
S11313C0DF9300D0CDB7DEB79A83898389819A8170
S11313D082309105A1F1833091052CF4009749F0F6
S11313E0019761F042C08330910571F1049789F14E
S11313F03CC081E090E09A8389833AC080913602B0
S1131400909137028637924064F080913602909131
S113141037028F3992402CF482E090E09A838983DA
S113142027C080911102882329F083E090E09A83F9
S113143089831EC081E090E09A83898319C081E08A
S113144090E09A83898314C084E090E09A8389832E
S11314500FC080911102882319F084E090E002C04B
S113146080E090E09A83898303C01A821982000085
S113147089819A818230910509F49EC08330910557
S113148034F4009709F49FC0019749F0A1C0833058
S1131490910509F495C0049709F497C099C0809107
S11314A07D01882309F07BC0809136029091370238
S11314B08D3B92401CF010920A0274C08091360257
S11314C090913702833B924024F081E780930A0293
S11314D069C08091360290913702893A924024F093
S11314E084E680930A025EC08091360290913702AE
S11314F08F39924024F080E780930A0253C0809190
S11315003602909137028539924024F089E680931F
S11315100A0248C080913602909137028B3892407B
S113152024F082E780930A023DC0809136029091B4
S113153037028138924024F082E680930A0232C056
S113154080913602909137028737924024F088E7E1
S113155080930A0227C080913602909137028D361B
S1131560924024F081E680930A021CC080913602E6
S1131570909137028336924024F080E780930A02E8
S113158011C08091360290913702853F914024F03A
S11315908AE680930A0206C010920A0203C085E616
S11315A080930A028091F701882389F080910A02CE
S11315B0806880930A020BC081E08093F70108C021
S11315C01092F70105C0000003C0000001C0000034
S11315D089819A810F900F90DF91CF9108950F9395
S11315E01F93CF93DF93CDB7DEB7CA57D1090FB698
S11315F0F894DEBF0FBECDBF81E290E0FC01108203
S113160082E290E028EFFC01208384E290E02FEF57
S1131610FC01208385E290E0FC01108287E290E0E7
S11316202FEFFC01208388E290E0FC0110828AE223
S113163090E02EEFFC0120838BE290E021E0FC019E
S1131640208384E690E0A0E0B0E08B839C83AD83AC
S1131650BE8384E690E0A0E0B0E08F839887A987FA
S1131660BA878AE090E0A0E0B0E08B879C87AD87E2
S1131670BE8788EE93E0A0E0B0E08F87988BA98BBB
S1131680BA8B8AE090E0A0E0B0E08B8B9C8BAD8BB2
S1131690BE8B8AE090E0A0E0B0E08F8B988FA98F9A
S11316A0BA8F84E690E0A0E0B0E08B8F9C8FAD8F82
S11316B0BE8F84E690E0A0E0B0E08F8F98A3A9A34A
S11316C0BAA38AE090E0A0E0B0E08BA39CA3ADA312
S11316D0BEA384E690E0A0E0B0E08FA398A7A9A7FA
S11316E0BAA784E690E0A0E0B0E08BA79CA7ADA7E2
S11316F0BEA781E090E0A0E0B0E08FA798ABA9ABD3
S1131700BAAB2F81388549855A858B819C81AD81FF
S1131710BE81BC01CD010E949302DC01CB018FA7E5
S113172098ABA9ABBAAB2B853C854D855E858FA55F
S113173098A9A9A9BAA9BC01CD010E949302DC0110
S1131740CB018FA798ABA9ABBAAB2F853889498950
S11317505A898FA598A9A9A9BAA9BC01CD010E944B
S11317609302DC01CB018FA798ABA9ABBAAB2B8951
S11317703C894D895E898FA598A9A9A9BAA9BC01FC
S1131780CD010E949302DC01CB018FA798ABA9ABDA
S1131790BAAB2F89388D498D5A8D8FA598A9A9A9DF
S11317A0BAA9BC01CD010E949302DC01CB018FA731
S11317B098ABA9ABBAAB2B8D3C8D4D8D5E8D8FA5AF
S11317C098A9A9A9BAA9BC01CD010E949302DC0180
S11317D0CB018FA798ABA9ABBAAB2F8D38A149A188
S11317E05AA18FA598A9A9A9BAA9BC01CD010E94A3
S11317F09302DC01CB018FA798ABA9ABBAAB2BA1A9
S11318003CA14DA15EA18FA598A9A9A9BAA9BC0123
S1131810CD010E949302DC01CB018FA798ABA9AB49
S1131820BAAB2FA138A549A55AA58FA598A9A9A9EE
S1131830BAA9BC01CD010E949302DC01CB018FA7A0
S113184098ABA9ABBAAB2BA53CA54DA55EA58FA5BE
S113185098A9A9A9BAA9BC01CD010E949302DC01EF
S1131860CB018FA798ABA9ABBAAB8FA598A9A9A9AF
S1131870BAA98BAB9CABADABBEAB8B819C81AD816C
S1131880BE812BA93CA94DA95EA9BC01CD0194D36D
S1131890DA01C9018FAB98AFA9AFBAAF8F81988530
S11318A0A985BA852BA93CA94DA95EA9BC01CD0186
S11318B083D3DA01C9018BAF9CAFADAFBEAF8E014C
S11318C0015C1F4F8B859C85AD85BE852BA93CA9EA
S11318D04DA95EA9BC01CD016FD3DA01C901F8019C
S11318E080839183A283B3838E010D5B1F4F8F8509
S11318F09889A989BA892BA93CA94DA95EA9BC01DB
S1131900CD015AD3DA01C901F80180839183A283FE
S1131910B3838E01095B1F4F8B899C89AD89BE8976
S11319202BA93CA94DA95EA9BC01CD0145D3DA017F
S1131930C901F80180839183A283B3838E01055B7F
S11319401F4F8F89988DA98DBA8D2BA93CA94DA9BC
S11319505EA9BC01CD0130D3DA01C901F80180834D
S11319609183A283B3838E01015B1F4F8B8D9C8D6A
S1131970AD8DBE8D2BA93CA94DA95EA9BC01CD019D
S11319801BD3DA01C901F80180839183A283B38355
S11319908E010D5A1F4F8F8D98A1A9A1BAA12BA911
S11319A03CA94DA95EA9BC01CD0106D3DA01C90148
S11319B0F80180839183A283B3838E01095A1F4F58
S11319C08BA19CA1ADA1BEA12BA93CA94DA95EA947
S11319D0BC01CD01F1D2DA01C901F8018083918300
S11319E0A283B3838E01055A1F4F8FA198A5A9A581
S11319F0BAA52BA93CA94DA95EA9BC01CD01DCD295
S1131A00DA01C901F80180839183A283B3838E0133
S1131A10015A1F4F8BA59CA5ADA5BEA52BA93CA91A
S1131A204DA95EA9BC01CD01C7D2DA01C901F801F3
S1131A3080839183A283B383CE018B599F4F26E188
S1131A40E2E6F1E0DC0101900D922A95E1F7CE0186
S1131A508D599F4F2BE030E0FC01318320838FEFC1
S1131A6080937E018FA998ADA9ADBAAD80937F0113
S1131A7090938001A0938101B09382018FA998ADC6
S1131A80A9ADBAAD8093830190938401A09385019D
S1131A90B093860180EE92E0909388018093870151
S1131AA08FEF809389018BAD9CADADADBEAD8093BE
S1131AB08A0190938B01A0938C01B0938D018BAD1F
S1131AC09CADADADBEAD80938E0190938F01A0937C
S1131AD09001B09391018FE594E0909393018093EA
S1131AE092018FEF80939401CE01CF96FC01808107
S1131AF09181A281B3818093950190939601A093E3
S1131B009701B0939801CE01CF96FC018081918119
S1131B10A281B3818093990190939A01A0939B0130
S1131B20B0939C0185E495E090939E0180939D0180
S1131B308FEF80939F01CE018D5B9F4FFC018081CD
S1131B409181A281B3818093A0019093A101A0937C
S1131B50A201B093A301CE018D5B9F4FFC01808154
S1131B609181A281B3818093A4019093A501A09354
S1131B70A601B093A70188EB95E09093A901809307
S1131B80A8018FEF8093AA01CE01895B9F4FFC01CE
S1131B9080819181A281B3818093AB019093AC0148
S1131BA0A093AD01B093AE01CE01895B9F4FFC01C0
S1131BB080819181A281B3818093AF019093B00120
S1131BC0A093B101B093B20185E397E09093B4017F
S1131BD08093B3018FEF8093B501CE01855B9F4F56
S1131BE0FC0180819181A281B3818093B60190939D
S1131BF0B701A093B801B093B901CE01855B9F4FA3
S1131C00FC0180819181A281B3818093BA01909378
S1131C10BB01A093BC01B093BD018DE897E0909304
S1131C20BF018093BE018FEF8093C001CE01815B21
S1131C309F4FFC0180819181A281B3818093C10176
S1131C409093C201A093C301B093C401CE01815B00
S1131C509F4FFC0180819181A281B3818093C50152
S1131C609093C601A093C701B093C80185EE97E095
S1131C709093CA018093C9018FEF8093CB01CE0169
S1131C808D5A9F4FFC0180819181A281B381809301
S1131C90CC019093CD01A093CE01B093CF01CE019E
S1131CA08D5A9F4FFC0180819181A281B3818093E1
S1131CB0D0019093D101A093D201B093D30181EDCF
S1131CC098E09093D5018093D4018FEF8093D6014F
S1131CD0CE01895A9F4FFC0180819181A281B381F9
S1131CE08093D7019093D801A093D901B093DA01DE
S1131CF0CE01895A9F4FFC0180819181A281B381D9
S1131D008093DB019093DC01A093DD01B093DE01AD
S1131D108DE699E09093E0018093DF018FEF80934B
S1131D20E101CE01855A9F4FFC0180819181A281FE
S1131D30B3818093E2019093E301A093E401B09313
S1131D40E501CE01855A9F4FFC0180819181A281DA
S1131D50B3818093E6019093E701A093E801B093E7
S1131D60E90180EA99E09093EB018093EA018FEF17
S1131D708093EC01CE01815A9F4FFC0180819181B7
S1131D80A281B3818093ED019093EE01A093EF01C2
S1131D90B093F001CE01815A9F4FFC018081918163
S1131DA0A281B3818093F1019093F201A093F30196
S1131DB0B093F4018FED99E09093F6018093F501CF
S1131DC08BA99CA9ADA9BEA9BC01CD010E94680143
S1131DD00E9496010E9485000E947B000E943902A5
S1131DE082E00E9423018CE390E0A0E0B0E08093C5
S1131DF00B0290930C02A0930D02B0930E0286E0A6
S1131E0080931C0210927D0180E290E0FC018081AD
S1131E10809588708093F80180E290E0FC018081D5
S1131E208095807E8093FF0180E290E0FC018081B8
S1131E30809580718093100289E290E0FC0180819A
S1131E408170809311028091F901882F90E0827251
S1131E509927829739F480910A0288231CF481E03F
S1131E6080937D011A82198293C09E012B593F4FA2
S1131E7089819A81880F991F820F931FFC018081A9
S1131E809181FC012581368147815085BE016B59C2
S1131E907F4F89819A81880F991F860F971FFC01B4
S1131EA080819181FC0181819281A381B481281771
S1131EB039074A075B0709F041C09E012B593F4F80
S1131EC089819A81880F991F820F931FFC010081D9
S1131ED011819E012B593F4F89819A81880F991F47
S1131EE0820F931FFC0180819181FC012185328541
S1131EF0AE014B595F4F89819A81880F991F840FD6
S1131F00951FFC0180819181FC018081082E000CC9
S1131F10990BF9010995F80180839E012B593F4FD4
S1131F2089819A81880F991F820F931FFC018081F8
S1131F309181FC0115821682178210869E012B590D
S1131F403F4F89819A81880F991F820F931FFC014B
S1131F5020813181AE014B595F4F89819A81880F6D
S1131F60991F840F951FFC0180819181FC0185815B
S1131F709681A781B0850196A11DB11DF9018583C4
S1131F809683A783B08789819A8101969A838983EE
S1131F90CE018D599F4F29813A81FC018081918125
S1131FA02817390708F461CF00008091780188234D
S1131FB0E1F31092780128CFA1E21A2EAA1BBB1BD1
S1131FC0FD010DC0AA1FBB1FEE1FFF1FA217B30701
S1131FD0E407F50720F0A21BB30BE40BF50B661F17
S1131FE0771F881F991F1A9469F7609570958095DB
S1131FF090959B01AC01BD01CF010895EE0FFF1F29
S11320000024001C0BBE0790F691E02D09948F92DA
S11320109F92AF92BF92CF92DF92EF92FF92CF93B3
S1132020DF93EC01688179818A819B816115710557
S11320308105910521F464E279ED8BE597E02DE1CA
S113204033EF41E050E038D049015A019B01AC0123
S1132050A7EAB1E44DD06B017C01ACEEB4EFA5016D
S1132060940152D0DC01CB018C0D9D1DAE1DBF1D12
S1132070B7FF03C00197A109B04888839983AA8355
S1132080BB839F77DF91CF91FF90EF90DF90CF904C
S1132090BF90AF909F908F900895B9CF80E091E06A
S11320A0B6CFA0E0B0E08093000190930101A0932B
S11320B00201B09303010895052E97FB16F40094D2
S11320C00FD057FD05D078DF07FC02D046F408C0D6
S11320D050954095309521953F4F4F4F5F4F089550
S11320E090958095709561957F4F8F4F9F4F089580
S11320F00FD0A59F900DB49F900DA49F800D911DAE
S113210011240895B7FFF4CFF3DF821B930B0895D6
S1132110A29FB001B39FC001A39F700D811D112424
S1132120911DB29F700D811D1124911D0895F89485
S1052130FFCFDB
S11321320100000001000000022020202020424F64
S11321424F4D2121212020202020594F5520424C3F
S113215245572055502121210020426F6D62206491
S11321626566757365642E202020476F6F6420773F
S11321726F726B21002043686F6F7365204C657624
S1132182656C3A202020203E4120203E4220203E01
S113219243007E01890194019F01AA01B501C00196
S10B21A2CB01D601E101EC01BF
S9030000FC
