:1000000045C0000060C000005EC000005CC0000091
:100010005AC0000058C0000056C0000054C0000084
:1000200052C0000050C000004EC000004CC0000094
:100030004AC00000A9C1000046C0000044C0000042
:1000400042C0000040C000003EC000003CC00000B4
:100050003AC0000038C0000036C0000034C00000C4
:1000600032C0000030C000002EC000002CC00000D4
:100070002AC0000028C0000026C0000024C00000E4
:1000800022C0000020C000001EC0000011241FBEBE
:10009000CFEFD0E4DEBFCDBF11E0A0E0B1E0E4EFF0
:1000A000FBE000E00BBF02C007900D92AC31B1073E
:1000B000D9F721E0ACE1B1E001C01D92A634B2074E
:1000C000E1F79ED395C59CCFCF93DF93CDB7DEB735
:1000D00081E004D00000DF91CF910895CF93DF93AA
:1000E0001F92CDB7DEB789838BE290E02BE230E040
:1000F000F90120812F7BFC01208388E290E0298197
:10010000FC0120838BE290E02BE230E0F9012081BA
:100110002068FC01208300008BE290E02BE230E0BD
:10012000F90120812F77FC01208382E090E073D0D9
:1001300000000F90DF91CF910895CF93DF931F922E
:10014000CDB7DEB789838BE290E02BE230E0F90196
:1001500020812064FC01208388E290E02981FC0159
:1001600020838BE290E02BE230E0F90120812068CF
:10017000FC01208300008BE290E02BE230E0F901EB
:1001800020812F77FC01208381E090E044D00000A3
:100190000F90DF91CF910895CF93DF9300D000D0DF
:1001A000CDB7DEB78A837C836B838EDF8A818983B8
:1001B0000FC0898191E0980F998318D08B819C8121
:1001C0009C012F5F3F4F3C832B83FC018081B5DF77
:1001D0008B819C81FC018081882359F700000F905E
:1001E0000F900F900F90DF91CF910895CF93DF93F1
:1001F0001F92CDB7DEB789838981813120F489814F
:1002000081586CDF03C08981815568DF00000F9041
:10021000DF91CF910895CF93DF9300D000D000D02D
:10022000CDB7DEB79E838D831A82198213C01C82DC
:100230001B8206C000008B819C8101969C838B836E
:100240008B819C8187309340ACF389819A810196A0
:100250009A83898329813A818D819E812817390764
:1002600034F3000026960FB6F894DEBF0FBECDBF64
:10027000DF91CF910895CF93DF9300D0CDB7DEB754
:1002800089836A838A81282F30E081E090E002C070
:10029000880F991F2A95E2F7982F898189230F905B
:1002A0000F90DF91CF910895CF93DF9300D000D0CE
:1002B000CDB7DEB769837A838B839C8389819A81EA
:1002C000AB81BC818093000190930101A093020156
:1002D000B09303018091000190910101A09102016E
:1002E000B091030180931D0190931E01A0931F0103
:1002F000B093200100000F900F900F900F90DF91AE
:10030000CF910895CF93DF93CDB7DEB781E890E02A
:100310002BE0FC01208388E890E02DE730E0FC0131
:10032000318320838FE690E022E0FC01208384E883
:1003300090E0FC01118210828091000190910101F6
:10034000A0910201B091030180931D0190931E01C1
:10035000A0931F01B09320018FE590E02FE530E0DE
:10036000F90120812068FC0120830000DF91CF91FA
:100370000895CF93DF93CDB7DEB781E080931C0162
:100380000000DF91CF9108951F920F9200905F00BF
:100390000F92112400905B000F922F933F934F9385
:1003A0005F936F937F938F939F93AF93BF93EF93DD
:1003B000FF93CF93DF93CDB7DEB780911D0190916E
:1003C0001E01A0911F01B09120010197A109B1095F
:1003D00080931D0190931E01A0931F01B0932001F3
:1003E00080911D0190911E01A0911F01B0912001EB
:1003F000892B8A2B8B2B89F4BCDF80910001909193
:100400000101A0910201B091030180931D0190931D
:100410001E01A0931F01B09320010000DF91CF9136
:10042000FF91EF91BF91AF919F918F917F916F91CC
:100430005F914F913F912F910F9000925B000F9031
:1004400000925F000F901F901895CF93DF93CDB768
:10045000DEB782E290E02FEEFC012083000080E214
:1004600090E0FC01808160E006DF882311F481E3E5
:10047000A9C080E290E0FC01808161E0FCDE88237D
:1004800011F484E39FC080E290E0FC01808162E08F
:10049000F2DE882311F487E395C080E290E0FC014E
:1004A000808163E0E8DE882311F48AE28BC082E277
:1004B00090E02FEDFC012083000080E290E0FC0141
:1004C000808160E0D8DE882311F482E37BC080E283
:1004D00090E0FC01808161E0CEDE882311F485E3A9
:1004E00071C080E290E0FC01808162E0C4DE88237C
:1004F00011F488E367C080E290E0FC01808163E052
:10050000BADE882311F480E35DC082E290E02FEB35
:10051000FC012083000080E290E0FC01808160E02B
:10052000AADE882311F483E34DC080E290E0FC0151
:10053000808161E0A0DE882311F486E343C080E27D
:1005400090E0FC01808162E096DE882311F489E36B
:1005500039C080E290E0FC01808163E08CDE88237A
:1005600011F483E22FC082E290E02FE7FC012083A8
:10057000000080E290E0FC01808160E07CDE882366
:1005800011F481E41FC080E290E0FC01808161E011
:1005900072DE882311F482E415C080E290E0FC0151
:1005A000808162E068DE882311F483E40BC080E27E
:1005B00090E0FC01808163E05EDE882311F484E436
:1005C00001C080E0DF91CF910895CF93DF93CDB745
:1005D000DEB72C970FB6F894DEBF0FBECDBF6D838C
:1005E0007E838F83988729873A874B875C878D81A5
:1005F0009E81AF81B88529853A854B855C85BC0194
:10060000CD01D4D2DC01CB0189839A83AB83BC8337
:1006100089819A81AB81BC81892B8A2B8B2B29F410
:1006200089859A85AB85BC8511C089859A85AB85FE
:10063000BC858D839E83AF83B88789819A81AB8186
:10064000BC8189879A87AB87BC87D1CFBC01CD019C
:100650002C960FB6F894DEBF0FBECDBFDF91CF91C1
:100660000895CF93DF9300D0CDB7DEB79A83898307
:1006700089819A818130910589F0823091051CF43D
:10068000892B39F02BC08230910589F00397E9F06E
:1006900025C081E090E09A83898326C08091430140
:1006A0008823F9F082E090E09A8389831AC08091D0
:1006B0004301882329F083E090E09A83898314C062
:1006C00081E090E09A8389830FC080914301882361
:1006D00051F481E090E09A83898305C01A821982DF
:1006E00003C0000001C0000089819A81813091051A
:1006F00099F0823091051CF4892B81F010C0823072
:10070000910519F0039729F00AC081E08093440114
:1007100006C01092440103C0000001C0000089819E
:100720009A810F900F90DF91CF910895CF93DF932F
:1007300000D0CDB7DEB79A83898389819A810097EB
:1007400019F0019749F005C081E090E09A83898310
:1007500004C01A82198201C0000089819A81813007
:10076000910531F08230910591F0892B91F012C002
:1007700080914401882341F080914301DEDC809127
:1007800042018F5F809342011092440103C0000038
:1007900001C0000089819A810F900F90DF91CF9165
:1007A0000895CF93DF9300D0CDB7DEB79A838983C6
:1007B00089819A81009719F0019731F00CC081E08E
:1007C00090E09A8389830AC080914201813118F0B8
:1007D00081E0809342011A821982000089819A8106
:1007E000009731F0019729F480914201FFDC01C0AC
:1007F000000089819A810F900F90DF91CF91089529
:100800000F931F93CF93DF93CDB7DEB7AA970FB6A1
:10081000F894DEBF0FBECDBF81E290E020EFFC0177
:10082000208382E290E02FE0FC01208387E290E0C9
:100830002FEFFC01208388E290E0FC0110828AE225
:1008400090E02FEFFC0120838BE290E0FC0110820E
:1008500084E690E0A0E0B0E08B839C83AD83BE8310
:1008600084E690E0A0E0B0E08F839887A987BA87FC
:1008700082E390E0A0E0B0E08B879C87AD87BE87E5
:1008800081E090E0A0E0B0E08F87988BA98BBA8BD5
:100890002F81388549855A858B819C81AD81BE81A8
:1008A000BC01CD0192DEDC01CB018F87988BA98B37
:1008B000BA8B2B853C854D855E858F859889A98966
:1008C000BA89BC01CD0181DEDC01CB018F87988B19
:1008D000A98BBA8B8F859889A989BA898B8B9C8BB8
:1008E000AD8BBE8B8B819C81AD81BE812B893C8978
:1008F0004D895E89BC01CD0159D1DA01C9018F8BC7
:10090000988FA98FBA8F8F819885A985BA852B89F1
:100910003C894D895E89BC01CD0148D1DA01C9010C
:100920008B8F9C8FAD8FBE8F8B859C85AD85BE8553
:100930002B893C894D895E89BC01CD0137D1DA0113
:10094000C9018F8F98A3A9A3BAA386E0E5E1F1E0DE
:10095000DE01959601900D928A95E1F783E090E093
:100960009CA38BA38FEF809321018F89988DA98DF4
:10097000BA8D8093220190932301A0932401B09318
:1009800025018F89988DA98DBA8D8093260190932A
:100990002701A0932801B093290181E393E090936C
:1009A0002B0180932A018FEF80932C018B8D9C8DDE
:1009B000AD8DBE8D80932D0190932E01A0932F01BC
:1009C000B09330018B8D9C8DAD8DBE8D80933101A8
:1009D00090933201A0933301B093340186E993E000
:1009E00090933601809335018FEF809337018F8D7F
:1009F00098A1A9A1BAA18093380190933901A0933D
:100A00003A01B0933B018F8D98A1A9A1BAA180931F
:100A10003C0190933D01A0933E01B0933F0181EDD5
:100A200093E090934101809340018B899C89AD892B
:100A3000BE89BC01CD0138DC65DC46DB64E071E0D9
:100A400081E0AADB81E080934201FFDC80934301D7
:100A50001A8219829BC089819A81880F991F9E01F1
:100A60002F5F3F4F820F931F8496FC0180819181FD
:100A7000FC01258136814781508589819A81880FC3
:100A8000991FBE016F5F7F4F860F971F8496FC01F1
:100A900080819181FC0181819281A381B481281799
:100AA00039074A075B0709F045C089819A81880F99
:100AB000991F9E012F5F3F4F820F931F8496FC0169
:100AC0000081118189819A81880F991F9E012F5F72
:100AD0003F4F820F931F8496FC0180819181FC011E
:100AE0002185328589819A81880F991FAE014F5FD8
:100AF0005F4F840F951F8496FC0180819181FC01DA
:100B00008081082E000C990BF9010995F80180836A
:100B100089819A81880F991F9E012F5F3F4F820F15
:100B2000931F8496FC0180819181FC0115821682BD
:100B30001782108689819A81880F991F9E012F5FE5
:100B40003F4F820F931F8496FC0120813181898160
:100B50009A81880F991FAE014F5F5F4F840F951FD9
:100B60008496FC0180819181FC0185819681A78119
:100B7000B0850196A11DB11DF90185839683A783D8
:100B8000B08789819A8101969A83898329813A81E4
:100B90008BA19CA12817390708F45DCF0000809134
:100BA0001C018823E1F310921C014FCFA1E21A2E01
:100BB000AA1BBB1BFD010DC0AA1FBB1FEE1FFF1F01
:100BC000A217B307E407F50720F0A21BB30BE40B51
:100BD000F50B661F771F881F991F1A9469F7609598
:100BE0007095809590959B01AC01BD01CF01089552
:040BF000F894FFCFA7
:100BF40001000000436F6E67726174756C61746903
:0C0C04006F6E73210021012C01370100EC
:00000001FF
