:1000000055C0000070C000006EC000006CC0000051
:100010006AC0000068C0000066C0000064C0000044
:1000200062C0000060C000005EC000005CC0000054
:100030005AC000009BC0000056C0000054C0000021
:1000400052C0000050C000004EC000004CC0000074
:100050004AC0000048C0000046C0000044C0000084
:1000600042C0000040C000003EC000003CC0000094
:100070003AC0000038C0000036C0000034C00000A4
:1000800032C0000030C000002EC000005E016501DB
:10009000A40187010702C1014D025B02D502D5020E
:1000A000A9028502B3029002CC02D50211241FBE20
:1000B000CFEFD0E4DEBFCDBF11E0A0E0B1E0ECE8CF
:1000C000F8E000E00BBF02C007900D92A630B10728
:1000D000D9F721E0A6E0B1E001C01D92A731B20737
:1000E000E1F716D3D1C38CCFCF93DF93CDB7DEB773
:1000F00081E890E02BE0FC01208388E890E02DE788
:1001000030E0FC01318320838FE690E022E0FC01A7
:10011000208384E890E0FC0111821082809101012B
:1001200090910201A0910301B091040180930D010F
:1001300090930E01A0930F01B09310018FE590E012
:100140002FE530E0F90120812068FC0120830000C8
:10015000DF91CF910895CF93DF93CDB7DEB781E0E4
:1001600080930C010000DF91CF9108951F920F92B0
:1001700000905F000F92112400905B000F922F936C
:100180003F934F935F936F937F938F939F93AF931F
:10019000BF93EF93FF93CF93DF93CDB7DEB78091FB
:1001A0000D0190910E01A0910F01B09110010197E6
:1001B000A109B10980930D0190930E01A0930F0145
:1001C000B093100180910D0190910E01A0910F014B
:1001D000B0911001892B8A2B8B2B89F4BCDF809185
:1001E000010190910201A0910301B091040180935B
:1001F0000D0190930E01A0930F01B0931001000028
:10020000DF91CF91FF91EF91BF91AF919F918F912E
:100210007F916F915F914F913F912F910F9000923D
:100220005B000F9000925F000F901F901895CF9386
:10023000DF9300D000D0CDB7DEB769837A838B839C
:100240009C8389819A81AB81BC81809301019093C9
:100250000201A0930301B0930401809101019091E8
:100260000201A0910301B091040180930D019093CC
:100270000E01A0930F01B093100100000F900F909A
:100280000F900F90DF91CF910895CF93DF93CDB76B
:10029000DEB78091150190911601CC01A0E0B0E08D
:1002A00040E050E027E030E0841B950B2817390729
:1002B00008F40FC18A5B9F4FFC01DDC281E090E032
:1002C00090931601809315010BC180910601813036
:1002D00039F483E090E09093160180931501FBC000
:1002E00080910601823039F482E090E0909316010B
:1002F00080931501F0C080910601833009F0EBC0B6
:1003000086E090E09093160180931501E4C08091FF
:100310000601813039F485E090E0909316018093D6
:100320001501DEC080910601833039F486E090E04B
:100330009093160180931501D3C081E090E09093D3
:10034000160180931501CCC080910601823039F4EA
:1003500084E090E09093160180931501C1C08091D4
:100360000601833039F486E090E090931601809383
:100370001501B6C081E090E09093160180931501BD
:10038000AFC08091090190910A01459748F0809192
:100390000B018F5F80930B0110920A0110920901EB
:1003A00080910B01833080F087E090E090931601FC
:1003B0008093150181E08093080110920A01109248
:1003C000090110920B0189C080910601833059F414
:1003D00086E090E0909316018093150110920A0137
:1003E000109209017AC080910601882309F075C036
:1003F00081E090E09093160180931501109208011E
:1004000010920A011092090110920B0166C08091AE
:10041000090190910A01459750F080910B018F5F7F
:1004200080930B0110920A011092090158C080912B
:100430000B01833080F087E090E090931601809369
:10044000150181E08093070110920A0110920901C1
:1004500010920B0144C080910601833059F486E06C
:1004600090E0909316018093150110920A0110926A
:10047000090135C080910601882389F581E090E06B
:1004800090931601809315011092070110920A01B2
:100490001092090110920B0122C08091060188235D
:1004A00019F481E090E002C086E090E0909316019C
:1004B0008093150115C080910601882319F481E00D
:1004C00090E002C087E090E09093160180931501C0
:1004D00007C0000005C0000003C0000001C000000C
:1004E0008091150190911601CC01A0E0B0E040E0B0
:1004F00050E027E030E0841B950B2817390708F4FB
:1005000052C0825B9F4FFC01B6C1809100018823DD
:1005100009F44DC08091000181508093000147C0D3
:1005200080910001882359F08091090190910A017E
:10053000449729F4809100018150809300018091BB
:10054000090190910A01019690930A018093090193
:1005500031C080910001893060F5809100018F5F8A
:100560008093000126C080910001893058F4809169
:10057000090190910A01449729F4809100018F5F4D
:10058000809300018091090190910A010196909356
:100590000A01809309010EC0109200011092070118
:1005A0001092080107C0000005C0000003C0000051
:1005B00001C000000000DF91CF910895CF93DF9339
:1005C000CDB7DEB780911101909112018130910574
:1005D00069F08130910518F00297D1F026C081E0D2
:1005E00090E090931201809311011FC08091070148
:1005F000882339F082E090E09093120180931101FA
:1006000014C081E090E090931201809311010DC01D
:1006100080910601823041F081E090E090931201D8
:1006200080931101109207010000809111019091B7
:1006300012018130910581F08130910578F00297A7
:1006400009F00FC080910001893050F480910001C1
:100650008F5F8093000104C0000003C0000001C050
:1006600000000000DF91CF910895CF93DF93CDB7C5
:10067000DEB780911301909114018130910569F0EA
:100680008130910518F0029799F022C081E090E046
:1006900090931401809313011BC08091080188235B
:1006A000A1F082E090E090931401809313010DC0BB
:1006B00080910601813059F081E090E0909314011F
:1006C000809313011092080102C0000001C00000D5
:1006D00080911301909114018130910581F0813056
:1006E000910578F0029709F00FC0809100018823EE
:1006F00051F08091000181508093000104C00000FE
:1007000003C0000001C000000000DF91CF910895F8
:10071000CF93DF93CDB7DEB760970FB6F894DEBF07
:100720000FBECDBF81E290E0FC01108282E290E03A
:100730002FEFFC01208384E290E02FEFFC01208367
:1007400085E290E0FC01108219821A821B821C82D1
:100750001D821E821F82188619861A861B861C8699
:1007600082E390E0A0E0B0E08D879E87AF87B88BF2
:10077000109216011092150110921201109211019F
:1007800010921401109213018D859E85AF85B88952
:10079000BC01CD014CDDA8DC80E290E0FC01808151
:1007A000809587708093060189819A81AB81BC8195
:1007B000C297A105B10528F068DD19821A821B8253
:1007C0001C828D819E81AF81B88580399140A105C1
:1007D000B10528F0F3DE1D821E821F8218868985EE
:1007E0009A85AB85BC8580399140A105B10528F07B
:1007F0003CDF19861A861B861C8685E290E02091D4
:100800000001FC012083000080910C018823E1F3AA
:1008100010920C0129813A814B815C818D859E85E6
:10082000AF85B889820F931FA41FB51F89839A8350
:10083000AB83BC832D813E814F8158858D859E85FC
:10084000AF85B889820F931FA41FB51F8D839E8328
:10085000AF83B88729853A854B855C858D859E85D4
:10086000AF85B889820F931FA41FB51F89879A8708
:10087000AB87BC8791CFEE0FFF1F0024001C0BBE7F
:0C0880000790F691E02D0994F894FFCF4A
:06088C0005010000000060
:00000001FF
