S0160000746573745F74656D705F377365672E7372656364
S113000045C0000061C000005FC000005DC000008A
S11300105BC0000059C0000057C0000055C000007C
S113002053C0000051C000004FC000004DC000008C
S11300304BC00000A7C1000047C0000045C000003D
S113004043C0000041C000003FC000003DC00000AC
S11300503BC0000039C0000037C0000035C00000BC
S113006033C0000031C000002FC000002DC00000CC
S11300702BC0000029C0000027C0000025C00000DC
S113008023C0000021C000001FC0000011241FBEB7
S1130090CFEFD0E4DEBFCDBF11E0A0E0B1E0EAEDE8
S11300A0F3E100E00BBF02C007900D92A031B1074D
S11300B0D9F721E0A0E1B1E001C01D92AE39B20749
S11300C0E1F729D40C94EB099BCFCF93DF93CDB701
S11300D0DEB781E01AD00000DF91CF910895CF936D
S11300E0DF93CDB7DEB784E690E0ACD088E30DD0E3
S11300F086E00BD08FE009D081E007D08AE090E061
S1130100A1D00000DF91CF910895CF93DF931F9288
S1130110CDB7DEB789838BE290E02BE230E0F901C2
S113012020812F7BFC01208388E290E02981FC015F
S113013020838BE290E02BE230E0F90120812068FB
S1130140FC01208300008BE290E02BE230E0F90117
S113015020812F77FC01208382E090E073D000009F
S11301600F90DF91CF910895CF93DF931F92CDB776
S1130170DEB789838BE290E02BE230E0F901208145
S11301802064FC01208388E290E02981FC01208323
S11301908BE290E02BE230E0F90120812068FC0141
S11301A0208300008BE290E02BE230E0F901208113
S11301B02F77FC01208381E090E044D000000F9071
S11301C0DF91CF910895CF93DF9300D000D0CDB7C6
S11301D0DEB78A837C836B8378DF8A8189830FC04F
S11301E0898191E0980F998318D08B819C819C011F
S11301F02F5F3F4F3C832B83FC018081B5DF8B81D4
S11302009C81FC018081882359F700000F900F9096
S11302100F900F90DF91CF910895CF93DF931F92AA
S1130220CDB7DEB789838981813120F489818158F2
S11302306CDF03C08981815568DF00000F90DF9176
S1130240CF910895CF93DF9300D000D000D0CDB7E5
S1130250DEB79E838D831A82198213C01C821B828F
S113026006C000008B819C8101969C838B838B81CB
S11302709C8187309340ACF389819A8101969A835B
S1130280898329813A818D819E812817390734F326
S1130290000026960FB6F894DEBF0FBECDBFDF91E7
S11302A0CF910895CF93DF9300D000D0CDB7DEB7C0
S11302B069837A838B839C8389819A81AB81BC8196
S11302C08093000190930101A0930201B093030174
S11302D08091000190910101A0910201B09103016C
S11302E08093110190931201A0931301B093140110
S11302F000000F900F900F900F90DF91CF91089511
S1130300CF93DF93CDB7DEB781E890E02BE0FC011B
S1130310208388E890E02DE730E0FC0131832083DE
S11303208FE690E022E0FC01208384E890E0FC0169
S1130330118210828091000190910101A09102012B
S1130340B09103018093110190931201A0931301C2
S1130350B09314018FE590E02FE530E0F90120819E
S11303602068FC0120830000DF91CF910895CF9392
S1130370DF93CDB7DEB781E0809310010000DF91F9
S1130380CF9108951F920F9200905F000F92112455
S113039000905B000F922F933F934F935F936F9363
S11303A07F938F939F93AF93BF93EF93FF93CF93D9
S11303B0DF93CDB7DEB78091110190911201A09126
S11303C01301B09114010197A109B109809311019E
S11303D090931201A0931301B09314018091110121
S11303E090911201A0911301B0911401892B8A2BD1
S11303F08B2B89F4BCDF8091000190910101A091C5
S11304000201B09103018093110190931201A09312
S11304101301B09314010000DF91CF91FF91EF918C
S1130420BF91AF919F918F917F916F915F914F9108
S11304303F912F910F9000925B000F9000925F000C
S11304400F901F901895CF93DF93CDB7DEB78AE74F
S113045090E02AE730E0F9012081206EFC0120833E
S11304600000DF91CF910895CF93DF9300D01F92C6
S1130470CDB7DEB78B838CE790E02B8127702064A7
S1130480FC0120838AE790E02AE730E0F90120812B
S11304902064FC01208300008AE790E0FC01808155
S11304A0882F90E080719927892BB1F38AE790E037
S11304B02AE730E0F90120812061FC01208388E7EC
S11304C090E0FC018081882F90E09A83898389E7FA
S11304D090E0FC018081882F90E0982F8827298163
S11304E03A81820F931F9A83898389819A810F901D
S11304F00F900F90DF91CF910895CF93DF93CDB7F5
S1130500DEB72C970FB6F894DEBF0FBECDBF6D8358
S11305107E838F83988729873A874B875C878D8171
S11305209E81AF81B88529853A854B855C85BC0160
S1130530CD0154D4DC01CB0189839A83AB83BC8382
S113054089819A81AB81BC81892B8A2B8B2B29F4DD
S113055089859A85AB85BC8511C089859A85AB85CB
S1130560BC858D839E83AF83B88789819A81AB8153
S1130570BC8189879A87AB87BC87D1CFBC01CD0169
S11305802C960FB6F894DEBF0FBECDBFDF91CF918E
S11305900895CF93DF9300D0CDB7DEB79A838983D4
S11305A089819A81009719F0019749F005C081E08B
S11305B090E09A83898304C01A82198201C00000E2
S11305C089819A81009721F1019709F022C08091D5
S11305D07A0190917B01292F2F938F9384E091E0EE
S11305E0892F8F9384E091E08F938AE591E0892F9E
S11305F08F938AE591E08F9313D40F900F900F900F
S11306000F900F900F906AE571E081E0DCDD01C08E
S1130610000089819A810F900F90DF91CF91089506
S1130620CF93DF9300D0CDB7DEB79A8389838981D6
S11306309A81009719F0019749F005C081E090E094
S11306409A83898303C01A82198201C000008981B8
S11306509A81009781F0019709F00EC08BE290E037
S113066020914401FC01208385E290E02091530114
S1130670FC01208301C0000089819A810F900F90B2
S1130680DF91CF910895CF93DF9300D0CDB7DEB73C
S11306909A83898389819A81009719F0029749F096
S11306A005C082E090E09A83898304C01A8219828B
S11306B001C0000089819A810097D1F0029709F066
S11306C01AC080915901882331F080E0CDDE9093E7
S11306D07B0180937A0180917A0190917B01892B2F
S11306E049F488EE93E090937B0180937A0102C0F1
S11306F0000001C0000089819A810F900F90DF9162
S1130700CF910895CF93DF9300D0CDB7DEB79A830E
S1130710898389819A818230910569F183309105B9
S11307202CF4009749F0019761F03BC083309105A8
S113073039F1049751F135C081E090E09A838983BF
S113074033C080917A0190917B01803892402CF4DF
S113075082E090E09A83898327C080916E01882388
S113076029F083E090E09A8389831EC081E090E0C1
S11307709A83898319C081E090E09A83898314C0A5
S113078084E090E09A8389830FC080916E0188236E
S113079019F084E090E002C080E090E09A838983BD
S11307A003C01A821982000089819A8182309105DE
S11307B009F49EC08330910534F4009709F49FC076
S11307C0019749F0A1C08330910509F495C00497BD
S11307D009F497C099C080911501882309F07BC062
S11307E080917A0190917B018D3B92401CF0109294
S11307F0530174C080917A0190917B01833B9240B4
S113080024F081E78093530169C080917A0190912B
S11308107B01893A924024F084E6809353015EC0C0
S113082080917A0190917B018F39924024F080E786
S11308308093530153C080917A0190917B01853953
S1130840924024F089E68093530148C080917A0154
S113085090917B018B38924024F082E7809353017E
S11308603DC080917A0190917B018138924024F0BF
S113087082E68093530132C080917A0190917B018A
S11308808737924024F088E78093530127C08091F2
S11308907A0190917B018D36924024F081E6809319
S11308A053011CC080917A0190917B018336924060
S11308B024F080E78093530111C080917A019091D4
S11308C07B01853F914024F08AE68093530106C062
S11308D01092530103C085EE80935301809142012D
S11308E0882389F0809153018068809353010BC061
S11308F081E08093420108C01092420105C00000CB
S113090003C0000001C0000089819A810F900F90FC
S1130910DF91CF9108950F931F93CF93DF93CDB7BA
S1130920DEB7E4970FB6F894DEBF0FBECDBF81E209
S113093090E0FC01108282E290E028EFFC01208329
S113094084E290E02FEFFC01208385E290E0FC013B
S1130950108287E290E02FEFFC01208388E290E090
S1130960FC0110828AE290E02EEFFC0120838BE2EE
S113097090E021E0FC01208384E690E0A0E0B0E078
S11309808B839C83AD83BE838AE090E0A0E0B0E0DB
S11309908F839887A987BA8784E690E0A0E0B0E0C7
S11309A08B879C87AD87BE8784E690E0A0E0B0E0AB
S11309B08F87988BA98BBA8B81E090E0A0E0B0E0A0
S11309C08B8B9C8BAD8BBE8B2F81388549855A854B
S11309D08B819C81AD81BE81BC01CD018EDDDC01AA
S11309E0CB018B8B9C8BAD8BBE8B2B853C854D8536
S11309F05E858B899C89AD89BE89BC01CD017DDD75
S1130A00DC01CB018B8B9C8BAD8BBE8B2F85388906
S1130A1049895A898B899C89AD89BE89BC01CD01DC
S1130A206CDDDC01CB018B8B9C8BAD8BBE8B8B89FE
S1130A309C89AD89BE898F8B988FA98FBA8F8B8142
S1130A409C81AD81BE812F89388D498D5A8DBC0121
S1130A50CD01C4D1DA01C9018B8F9C8FAD8FBE8FBC
S1130A608F819885A985BA852F89388D498D5A8DAE
S1130A70BC01CD01B3D1DA01C9018F8F98A3A9A319
S1130A80BAA38B859C85AD85BE852F89388D498D0C
S1130A905A8DBC01CD01A2D1DA01C9018BA39CA35B
S1130AA0ADA3BEA38F859889A989BA892F89388D6A
S1130AB0498D5A8DBC01CD0191D1DA01C9018FA3B1
S1130AC098A7A9A7BAA788E0E7E0F1E0DE019D9620
S1130AD001900D928A95E1F784E090E09CA78BA7A2
S1130AE08FEF809316018B8D9C8DAD8DBE8D809381
S1130AF0170190931801A0931901B0931A018B8DDB
S1130B009C8DAD8DBE8D80931B0190931C01A09391
S1130B101D01B0931E0189EC92E090932001809313
S1130B201F018FEF809321018F8D98A1A9A1BAA1F4
S1130B308093220190932301A0932401B093250173
S1130B408F8D98A1A9A1BAA1809326019093270122
S1130B50A0932801B093290180E193E090932B01A5
S1130B6080932A018FEF80932C018BA19CA1ADA1CE
S1130B70BEA180932D0190932E01A0932F01B093D9
S1130B8030018BA19CA1ADA1BEA1809331019093B2
S1130B903201A0933301B093340183E493E0909342
S1130BA03601809335018FEF809337018FA198A58B
S1130BB0A9A5BAA58093380190933901A0933A016D
S1130BC0B0933B018FA198A5A9A5BAA580933C0138
S1130BD090933D01A0933E01B0933F0182E893E0DE
S1130BE090934101809340018F89988DA98DBA8D8E
S1130BF0BC01CD0157DB84DB72DA67DA24DC82E0E6
S1130C000CDB8CE390E0A0E0B0E08093540190937F
S1130C105501A0935601B093570186E08093790162
S1130C201092150180E290E0FC018081809588702B
S1130C308093430180E290E0FC0180818095807E76
S1130C4080934A0180E290E0FC018081809580716C
S1130C508093590189E290E0FC0180818170809346
S1130C606E0180914401882F90E0827299278297C7
S1130C7039F48091530188231CF481E08093150199
S1130C801A8219829BC089819A81880F991F9E01BB
S1130C902F5F3F4F820F931F8C96FC0180819181BF
S1130CA0FC01258136814781508589819A81880F8D
S1130CB0991FBE016F5F7F4F860F971F8C96FC01B3
S1130CC080819181FC0181819281A381B481281763
S1130CD039074A075B0709F045C089819A81880F63
S1130CE0991F9E012F5F3F4F820F931F8C96FC012B
S1130CF00081118189819A81880F991F9E012F5F3C
S1130D003F4F820F931F8C96FC0180819181FC01DF
S1130D102185328589819A81880F991FAE014F5FA1
S1130D205F4F840F951F8C96FC0180819181FC019B
S1130D308081082E000C990BF9010995F801808334
S1130D4089819A81880F991F9E012F5F3F4F820FDF
S1130D50931F8C96FC0180819181FC01158216827F
S1130D601782108689819A81880F991F9E012F5FAF
S1130D703F4F820F931F8C96FC0120813181898122
S1130D809A81880F991FAE014F5F5F4F840F951FA3
S1130D908C96FC0180819181FC0185819681A781DB
S1130DA0B0850196A11DB11DF90185839683A783A2
S1130DB0B08789819A8101969A83898329813A81AE
S1130DC08BA59CA52817390708F45DCF00008091F6
S1130DD010018823E1F31092100124CFA1E21A2E0E
S1130DE0AA1BBB1BFD010DC0AA1FBB1FEE1FFF1FCB
S1130DF0A217B307E407F50720F0A21BB30BE40B1B
S1130E00F50B661F771F881F991F1A9469F7609561
S1130E107095809590959B01AC01BD01CF0108951B
S1130E200F931F93CF93DF93CDB7DEB72E970FB6F3
S1130E30F894DEBF0FBECDBF0D891E8986E08C837A
S1130E401A8309838FEF9FE79E838D83AE01475EEC
S1130E505F4F6F89788DCE01019610D0EF81F885B0
S1130E60E00FF11F10822E960FB6F894DEBF0FBE6E
S1130E70CDBFDF91CF911F910F9108952F923F9293
S1130E804F925F926F927F928F929F92AF92BF9296
S1130E90CF92DF92EF92FF920F931F93CF93DF9342
S1130EA0CDB7DEB72B970FB6F894DEBF0FBECDBF1C
S1130EB06C017B018A01FC0117821682838181FF08
S1130EC0BFC1CE0101963C01F6019381F70193FD68
S1130ED0859193FF81917F01882309F4ADC1853207
S1130EE039F493FD859193FF81917F01853221F43B
S1130EF0B60190E0D6D1E8CF912C212C312CFFE122
S1130F00F315D8F08B3279F038F4803279F08332EB
S1130F10A1F4232D20611DC08D3261F0803369F46A
S1130F20232D216016C0832D8260382EE32DE460CA
S1130F303E2E2AC0F32DF8601DC037FC2DC020EDD5
S1130F40280F2A3040F08E32B9F436FC75C1232DB7
S1130F502064322E19C036FE06C08AE0989E200D09
S1130F601124922E11C0EAE02E9E200D1124222E6F
S1130F70F32DF0623F2E08C08C3621F4832D806857
S1130F80382E02C0883641F4F70193FD859193FF12
S1130F9081917F018111B3CF982F9F7D9554933018
S1130FA028F40C5F1F4F9FE399830DC0833631F003
S1130FB0833771F0833509F055C020C0F801808172
S1130FC089830E5F1F4F88248394912C530112C090
S1130FD02801F2E04F0E511CF801A080B18036FECA
S1130FE003C0692D70E002C06FEF7FEFC5014ED1E1
S1130FF04C018201F32DFF773F2E15C0280122E01A
S1131000420E511CF801A080B18036FE03C0692D48
S113101070E002C06FEF7FEFC5012DD14C01F32DBD
S1131020F0683F2E820133FC19C0822D90E08816AF
S11310309906A0F4B60180E290E033D12A94F5CF6A
S1131040F50137FC859137FE81915F01B60190E08F
S113105028D121102A9421E0821A91088114910444
S113106079F7E1C0843611F0893639F5F80137FE95
S113107007C060817181828193810C5F1F4F08C01A
S113108060817181072E000C880B990B0E5F1F4F36
S1131090F32DFF763F2E97FF09C0909580957095AC
S11310A061957F4F8F4F9F4FF0683F2E2AE030E0CD
S11310B0A30133D1882E861844C0853731F4232DFB
S11310C02F7EB22E2AE030E025C0932D997FB92ED1
S11310D08F36C1F018F4883579F0AEC0803719F036
S11310E0883721F0A9C0E92FE061BE2EB4FE0DC0FF
S11310F0FB2DF460BF2E09C034FE0AC0292F2660E0
S1131100B22E06C028E030E005C020E130E002C085
S113111020E132E0F801B7FE07C06081718182816D
S113112093810C5F1F4F06C06081718180E090E065
S11311300E5F1F4FA301F1D0882E8618FB2DFF7779
S11311403F2E36FE0DC0232D2E7FA22E891458F477
S113115034FE0BC032FC09C0832D8E7EA82E05C040
S1131160B82CA32C03C0B82C01C0B92CA4FE0FC00A
S1131170FE01E80DF11D8081803321F49A2D997EC2
S1131180A92E09C0A2FE06C0B394B39404C08A2D4C
S1131190867809F0B394A3FC10C0A0FE06C0B21474
S11311A080F4280C922C9B180DC0B21458F4B6018C
S11311B080E290E076D0B394F8CFB21418F42B18F0
S11311C002C0982C212CA4FE0FC0B60180E390E04D
S11311D068D0A2FE16C0A1FC03C088E790E002C05C
S11311E088E590E0B6010CC08A2D867851F0A1FE06
S11311F002C08BE201C080E2A7FC8DE2B60190E060
S113120050D0891430F4B60180E390E04AD09A9427
S1131210F8CF8A94F301E80DF11D8081B60190E0C6
S113122040D08110F6CF222009F44ECEB60180E2E0
S113123090E037D02A94F7CFF6018681978102C0D7
S11312408FEF9FEF2B960FB6F894DEBF0FBECDBF86
S1131250DF91CF911F910F91FF90EF90DF90CF908E
S1131260BF90AF909F908F907F906F905F904F90C2
S11312703F902F900895FC0105906150704001103B
S1131280D8F7809590958E0F9F1F0895FC016150AB
S1131290704001900110D8F7809590958E0F9F1F94
S11312A008950F931F93CF93DF93FB01238121FDB7
S11312B003C08FEF9FEF2CC022FF16C046815781D9
S11312C0248135814217530744F4A081B1819D01E3
S11312D02F5F3F4F318320838C93268137812F5F8B
S11312E03F4F3783268314C08B01EC01FB0100843C
S11312F0F185E02D0995892BE1F6D80116968D919B
S11313009C911797019617969C938E931697CE01EE
S1131310DF91CF911F910F910895FA01AA272830E8
S113132051F1203181F1E8946F936E7F6E5F7F4FAE
S11313308F4F9F4FAF4FB1E03ED0B4E03CD0670F2A
S1131340781F891F9A1FA11D680F791F8A1F911D7D
S1131350A11D6A0F711D811D911DA11D20D009F4CD
S113136068943F912AE0269F11243019305D31930F
S1131370DEF6CF010895462F4770405D4193B3E0F8
S11313800FD0C9F7F6CF462F4F70405D4A3318F09F
S1131390495D31FD4052419302D0A9F7EACFB4E050
S11313A0A6959795879577956795BA95C9F7009708
S11313B06105710508959B01AC010A2E06945795A9
S11313C0479537952795BA95C9F7620F731F841F00
S10D13D0951FA01D0895F894FFCFA7
S11313DA0100000025640016012C012101370100D7
S9030000FC
