S025000061746F72723034385F737472616E3035305F6C616231305F70617274342E73726563E6
S113000045C0000060C000005EC000005CC000008D
S11300105AC0000058C0000056C0000054C0000080
S113002052C0000050C000004EC000004CC0000090
S11300304AC000008BC0000046C0000044C000005D
S113004042C0000040C000003EC000003CC00000B0
S11300503AC0000038C0000036C0000034C00000C0
S113006032C0000030C000002EC000002CC00000D0
S11300702AC0000028C0000026C0000024C00000E0
S113008022C0000020C000001EC0000011241FBEBA
S1130090CFEFD0E4DEBFCDBF11E0A0E0B1E0E6EAEF
S11300A0FBE000E00BBF02C007900D92A632B1073F
S11300B0D9F721E0A6E2B1E001C01D92AC33B2074A
S11300C0E1F721D36EC59CCFCF93DF93CDB7DEB7D5
S11300D081E890E02BE0FC01208388E890E02DE7A4
S11300E030E0FC01318320838FE690E022E0FC01C4
S11300F0208384E890E0FC01118210828091210128
S113010090912201A0912301B091240180932A01AE
S113011090932B01A0932C01B0932D018FE590E0D7
S11301202FE530E0F90120812068FC0120830000E4
S1130130DF91CF910895CF93DF93CDB7DEB781E000
S1130140809329010000DF91CF9108951F920F92AF
S113015000905F000F92112400905B000F922F9388
S11301603F934F935F936F937F938F939F93AF933B
S1130170BF93EF93FF93CF93DF93CDB7DEB7809117
S11301802A0190912B01A0912C01B0912D0101978E
S1130190A109B10980932A0190932B01A0932C010A
S11301A0B0932D0180912A0190912B01A0912C01F3
S11301B0B0912D01892B8A2B8B2B89F4BCDF809184
S11301C0210190912201A0912301B09124018093F7
S11301D02A0190932B01A0932C01B0932D010000D0
S11301E0DF91CF91FF91EF91BF91AF919F918F914B
S11301F07F916F915F914F913F912F910F9000925A
S11302005B000F9000925F000F901F901895CF93A2
S1130210DF9300D000D0CDB7DEB769837A838B83B8
S11302209C8389819A81AB81BC81809321019093C5
S11302302201A0932301B093240180912101909184
S11302402201A0912301B091240180932A0190936B
S11302502B01A0932C01B0932D0100000F900F905F
S11302600F900F90DF91CF9108950F931F93CF9329
S1130270DF9300D000D0CDB7DEB769837A838B8358
S11302809C8380912E0190912F01A0913001B09117
S113029031019C01AD0169817A818B819C8108D3F4
S11302A0882309F46CC020E030E0A90169817A81D7
S11302B08B819C81FDD2882351F485E490E025E470
S11302C030E0F90120812870FC01208309C085E415
S11302D090E025E430E0F90120812360FC012083D3
S11302E028E539E344E75FE369817A818B819C8166
S11302F0DFD2882334F487E490E02FEFFC012083DD
S11303002EC020E034E244EF56E469817A818B8187
S11303109C81E0D318162CF487E490E0FC01108251
S11303201EC007E410E020E030E040E053E46981BF
S11303307A818B819C81D2D3DC01CB019C01AD01FC
S113034060E074E284EF9AE4B7D2DC01CB01BC0133
S1130350CD011AD3DC01CB018150F801808386E4FE
S113036090E0FC01108289819A81AB81BC818093E9
S11303702E0190932F01A0933001B093310100001E
S11303800F900F900F900F90DF91CF911F910F91CD
S11303900895CF93DF93CDB7DEB784E490E021E4F2
S11303A0FC01208385E490E02BE0FC01208360E0E5
S11303B070E0CB015ADF0000DF91CF910895CF9315
S11303C0DF93CDB7DEB78091320190913301813054
S11303D0910581F08130910530F08230910589F0EA
S11303E00397B1F01CC081E090E0909333018093B7
S11303F0320115C082E090E0909333018093320182
S11304000EC083E090E0909333018093320107C0E3
S113041081E090E090933301809332010000809159
S11304203201909133018130910549F08130910579
S113043090F08230910539F0039749F00DC081E0C6
S11304408093260109C082E08093260105C084E0E0
S11304508093260101C000000000DF91CF91089530
S1130460CF93DF93CDB7DEB78091360190913701FA
S11304708130910569F08130910518F0029779F087
S113048015C082E090E090933701809336010EC04E
S113049082E090E0909337018093360107C081E0B9
S11304A090E09093370180933601000080913601EB
S11304B0909137018130910531F08130910550F0F0
S11304C0029721F008C01092270105C080E18093B3
S11304D0270101C000000000DF91CF910895CF9360
S11304E0DF93CDB7DEB780913A0190913B01813023
S11304F0910569F08130910518F00297B1F023C09D
S113050081E090E090933B0180933A011CC080917C
S11305102801843019F482E090E002C081E090E088
S113052090933B0180933A010EC08091280184305E
S113053019F482E090E002C081E090E090933B01E6
S113054080933A01000080913A0190913B018130FF
S1130550910531F081309105D8F0029731F019C03E
S113056060E070E0CB0181DE14C080912001882F0F
S113057090E0880F991F880F991F80509F4FFC01AE
S113058080819181A281B381BC01CD016EDE01C065
S113059000000000DF91CF910895CF93DF93CDB792
S11305A0DEB780913801909139018230910591F143
S11305B08330910528F4009749F0019771F03FC00A
S11305C08330910501F1049761F139C081E090E035
S11305D0909339018093380132C080912801813091
S11305E039F483E090E0909339018093380124C07A
S11305F080912801823001F582E090E090933901E6
S11306008093380119C084E090E09093390180937D
S1130610380115C084E090E090933901809338014B
S11306200EC080912801882349F481E090E09093E2
S113063039018093380102C0000001C0000080919C
S11306403801909139018230910571F08330910520
S113065028F40097E9F00197E9F023C0833091056D
S113066069F00497C9F01DC0809120018730B0F46F
S1130670809120018F5F8093200110C08091200120
S1130680882371F08091200181508093200108C05B
S1130690000007C0000005C0000003C0000001C046
S11306A000000000DF91CF910895CF93DF93CDB781
S11306B0DEB78091340190913501009719F00197CC
S11306C041F008C081E090E09093350180933401BB
S11306D001C000008091340190913501009771F0C0
S11306E0019709F00CC085E290E030912701209138
S11306F02601232B2860FC01208301C00000000098
S1130700DF91CF910895CF93DF93CDB7DEB7649790
S11307100FB6F894DEBF0FBECDBF81E290E0FC01BE
S1130720108282E290E02FEFFC01208384E290E0CB
S11307302FEFFC01208385E290E028E0FC01208378
S113074019821A821B821C821D821E821F821886B5
S113075019861A861B861C861D861E861F86188A85
S113076082E090E0A0E0B0E0898B9A8BAB8BBC8BED
S113077010DE89899A89AB89BC89BC01CD0147DD2A
S1130780A3DC1092330110923201109237011092BF
S1130790360110923B0110923A01109239011092E5
S11307A0380180E290E0FC0180818095877080931D
S11307B0280189819A81AB81BC818C329140A10549
S11307C0B10528F0FCDD19821A821B821C828D81FE
S11307D09E81AF81B885883E9340A105B10528F07C
S11307E03FDE1D821E821F8218868D859E85AF8501
S11307F0B8890297A105B10528F0CFDE1D861E86B3
S11308001F86188A89859A85AB85BC850297A105C0
S1130810B10528F064DE19861A861B861C8645DF1E
S11308200000809129018823E1F3109229012D8190
S11308303E814F81588589899A89AB89BC89820F09
S1130840931FA41FB51F8D839E83AF83B88729810F
S11308503A814B815C8189899A89AB89BC89820FF1
S1130860931FA41FB51F89839A83AB83BC832985F7
S11308703A854B855C8589899A89AB89BC89820FC5
S1130880931FA41FB51F89879A87AB87BC872D85C3
S11308903E854F85588989899A89AB89BC89820F9D
S11308A0931FA41FB51F8D879E87AF87B88B79CF01
S11308B09CD008F481E008950CD0D2C0CAD040F096
S11308C0C1D030F021F45F3F19F0B3C05111FCC026
S11308D0B6C0D7D098F39923C9F35523B1F3951B28
S11308E0550BBB27AA2762177307840738F09F5F4D
S11308F05F4F220F331F441FAA1FA9F333D00E2EBC
S11309003AF0E0E830D091505040E695001CCAF728
S113091029D0FE2F27D0660F771F881FBB1F2617ED
S113092037074807AB07B0E809F0BB0B802DBF01C0
S1130930FF2793585F4F2AF09E3F510568F079C016
S1130940C3C05F3FECF3983EDCF3869577956795DB
S1130950B795F7959F5FC9F7880F911D9695879571
S113096097F90895E1E0660F771F881FBB1F621790
S113097073078407BA0720F0621B730B840BBA0B4E
S1130980EE1F88F7E095089504D06894B1119CC0D7
S113099008957FD088F09F5790F0B92F9927B751C9
S11309A0A0F0D1F0660F771F881F991F1AF0BA952F
S11309B0C9F712C0B13081F086D0B1E0089583C088
S11309C0672F782F8827B85F39F0B93FCCF3869525
S11309D077956795B395D9F73EF490958095709582
S11309E061957F4F8F4F9F4F0895990F0008550FC2
S11309F0AA0BE0E8FEEF16161706E807F907C0F0A1
S1130A0012161306E407F50798F0621B730B840BA8
S1130A10950B39F40A2661F0232B242B252B21F482
S1130A2008950A2609F4A140A6958FEF811D811D22
S1130A30089597F99F6780E870E060E008959FEF5C
S1130A4080EC089500240A94161617061806090661
S1130A50089500240A941216130614060506089530
S1130A60092E0394000C11F4882352F0BB0F40F4B8
S1130A70BF2B11F460FF04C06F5F7F4F8F4F9F4FF8
S1130A80089557FD9058440F551F59F05F3F71F07A
S1130A904795880F97FB991F61F09F3F79F08795E1
S1130AA00895121613061406551FF2CF4695F1DF6A
S1130AB008C0161617061806991FF1CF86957105FA
S1130AC0610508940895E894BB2766277727CB012E
S1130AD097F908958ADF08F48FEF08950BD0C0CFFB
S1130AE0B1DF28F0B6DF18F0952309F0A2CFA7CF25
S1130AF01124EACFC6DFA0F3959FD1F3950F50E000
S1130B00551F629FF001729FBB27F00DB11D639FBB
S1130B10AA27F00DB11DAA1F649F6627B00DA11D61
S1130B20661F829F2227B00DA11D621F739FB00D07
S1130B30A11D621F839FA00D611D221F749F332777
S1130B40A00D611D231F849F600D211D822F762F10
S1130B506A2F11249F5750408AF0E1F088234AF00D
S1130B60EE0FFF1FBB1F661F771F881F9150504059
S1130B70A9F79E3F510570F05CCFA6CF5F3FECF321
S1130B80983EDCF3869577956795B795F795E79545
S1130B909F5FC1F7FE2B880F911D9695879597F956
S1090BA00895F894FFCF54
S1130BA6A4F07643A4D082437BD49243A4D0A44336
S1130BB6719DAE430000C4430000DC43A4F0F64339
S1090BC602010000000022
S9030000FC
