S025000061746F72723034385F737472616E3035305F6C6162365F706172745F312E73726563B5
S113000045C0000060C000005EC000005CC000008D
S11300105AC0000058C0000056C0000054C0000080
S113002052C0000050C000004EC000004CC0000090
S11300304AC0000086C0000046C0000044C0000062
S113004042C0000040C000003EC000003CC00000B0
S11300503AC0000038C0000036C0000034C00000C0
S113006032C0000030C000002EC000002CC00000D0
S11300702AC0000028C0000026C0000024C00000E0
S113008022C0000020C000001EC0000011241FBEBA
S1130090CFEFD0E4DEBFCDBF11E0A0E0B1E0EAE6EF
S11300A0F3E000E00BBF02C007900D92A630B10749
S11300B0D9F721E0A6E0B1E001C01D92AD30B2074E
S11300C0E1F735D150C19CCFCF93DF93CDB7DEB7E5
S11300D081E890E02BE0FC01208388E890E02DE7A4
S11300E030E0FC01318320838FE690E022E0FC01C4
S11300F020838091000190910101A0910201B091AF
S113010003018093070190930801A0930901B09320
S11301100A018FE590E02FE530E0F90120812068A5
S1130120FC0120830000DF91CF910895CF93DF93EA
S1130130CDB7DEB781E0809306010000DF91CF9157
S113014008951F920F9200905F000F921124009067
S11301505B000F922F933F934F935F936F937F9323
S11301608F939F93AF93BF93EF93FF93CF93DF93BB
S1130170CDB7DEB78091070190910801A0910901E4
S1130180B0910A010197A109B109809307019093E5
S11301900801A0930901B0930A018091070190918D
S11301A00801A0910901B0910A01892B8A2B8B2B9C
S11301B089F4BCDF8091000190910101A0910201BA
S11301C0B09103018093070190930801A093090162
S11301D0B0930A010000DF91CF91FF91EF91BF919D
S11301E0AF919F918F917F916F915F914F913F91CB
S11301F02F910F9000925B000F9000925F000F9080
S11302001F901895CF93DF9300D000D0CDB7DEB701
S113021069837A838B839C8389819A81AB81BC8136
S11302208093000190930101A0930201B093030114
S11302308091000190910101A0910201B09103010C
S11302408093070190930801A0930901B0930A01D8
S113025000000F900F900F900F90DF91CF910895B1
S1130260CF93DF93CDB7DEB780910B0190910C0152
S11302708130910581F08130910530F08230910513
S1130280A1F0039701F128C081E090E090930C0164
S113029080930B0121C082E090E090930C01809345
S11302A00B0181E08093040117C08091040188232D
S11302B019F083E090E002C081E090E090930C019B
S11302C080930B0109C082E090E090930C0180932D
S11302D00B0110920401000080910B0190910C011C
S11302E08130910571F08130910530F082309105B3
S11302F071F0039791F017C085E290E0FC01108241
S113030012C085E290E021E0FC0120830CC085E26C
S113031090E022E0FC01208306C085E290E024E026
S1130320FC01208300000000DF91CF910895CF935A
S1130330DF93CDB7DEB784E290E02FEFFC0120839A
S113034085E290E0FC01108268EE73E080E090E0CA
S113035059DFBADE85DF0000809106018823E1F3CE
S10D036010920601F7CFF894FFCFC6
S109036A01000000010087
S9030000FC
